:020000040000FA
:060000000A128A11F92F1B
:100C44000A128A113E260A128A11831603131114FA
:100C540008000A128A113E260A128A118316031307
:100C6400111508000A128A113E260A128A11700808
:100C74008312031393000800831603131419432EDD
:100C8400442E3E2E11081F39031D492E4A2E3E2E96
:100C9400080083160317880189018316031386014C
:100CA4008501880183120313850186018801831657
:100CB40003130F178F160F160F140030831203132C
:100CC400A3000130A2008630A100A030A0000A12C7
:100CD4008A119D260A128A1108000A128A113E26D8
:100CE4000A128A118316031391150A128A113E26D9
:100CF4000A128A11831203131308F200F301720813
:100D0400F4007308F5000A128A113E260A128A11A9
:100D140070037104031D8F2E902E942E83160313DB
:100D24009112972E83160313911611167508F1006C
:100D34007408F0000800283083120313940083160B
:100D440003139101831203132008A4002108A500B2
:100D54002208A6002308A70002300310A40DA50D45
:100D6400A60DA70DFF3E031DAF2E2708F30026088E
:100D7400F2002508F1002408F0000030F7007A3072
:100D8400F6001230F5000030F4000A128A11D5265C
:100D94000A128A117008FF3E83160313930094010C
:100DA4008715071608000030FC000030FB000030F7
:100DB400FA000030F9007308720471047004031916
:100DC400E42EE52E322FFD01FD0AF52E0130F80048
:100DD4000310F00DF10DF20DF30DF80BEA2E0130B6
:100DE400F8007808FD07F31FF82EF92EE82E0130DD
:100DF400F8000310F90DFA0DFB0DFC0DF80BFB2E9A
:100E040073087702031D102F72087602031D102F3A
:100E140071087502031D102F70087402031C132F30
:100E2400142F232F7008F4027108031C710FF502AC
:100E34007208031C720FF6027308031C730FF70287
:100E4400791401300310F30CF20CF10CF00CFF3E9A
:100E5400031D242F0130FD02031D312F322FF92EE3
:100E64007C08F3007B08F2007A08F1007908F000AE
:100E740008000A128A114B260A128A110A128A11D0
:100E840022260A128A115130F0000030F1000A12B1
:100E94008A1134260A128A110030F000F1000A1275
:100EA4008A116F260A128A117008831203138600AE
:100EB4000A128A112B260A128A1103308312031391
:100EC400AA000830A9007630A800A80B672FA90B48
:100ED400672FAA0B672F00000A128A1122260A1212
:100EE4008A116130F0000030F1000A128A113426B0
:100EF4000A128A110030F000F1000A128A116F26DA
:100F04000A128A1170088312031388000A128A11C4
:100F14002B260A128A11033083120313AA00083005
:100F2400A9007630A800A80B952FA90B952FAA0B22
:100F3400952F00000A128A1122260A128A11803083
:100F4400F0000030F1000A128A1134260A128A11C4
:100F5400F330F0000030F1000A128A1134260A122C
:100F64008A110A128A112B260A128A11033083125B
:100F74000313AA000830A9007630A800A80BC02FDC
:100F8400A90BC02FAA0BC02F00000A128A11222617
:100F94000A128A118130F0000030F1000A128A111D
:100FA40034260A128A110030F000F1000A128A1164
:100FB4006F260A128A1170088312031385000A121D
:100FC4008A112B260A128A11033083120313AA00F2
:100FD4000830A9007630A800A80BEE2FA90BEE2F3D
:100FE400AA0BEE2F0000402F0A128A110028831248
:0C0FF4000313AB0183010A128A113B2F8A
:04400E00D420FF3F7C
:00000001FF
