:020000040000FA
:100000000A128A11ED2F83160317880189018316BE
:10001000031386018501880183120313850186017C
:100020008801831603130F178F160F160F14003055
:1000300083120313A3000130A2008630A100A03078
:10004000A0000A128A1555210A128A11080083128B
:10005000031341088039C2004208CB004108C200A6
:100060004207C3004308D200C01F37283828392868
:100070005214520803193D283E284E28520A031DE7
:10008000422843284B280030C1000030C000003017
:10009000BF000030BE00C017C10156280030C100AB
:1000A0000030C0000030BF000030BE003D08803985
:1000B000C2004208CB063D08C2004207C300430805
:1000C000D300BC1F642865286628531453080319FD
:1000D0006A286B287B28530A031D6F28702878280C
:1000E0000030BD000030BC000030BB000030BA0062
:1000F000BC17BD0183280030BD000030BC000030BB
:10010000BB000030BA003D083C043B043A04031D28
:100110008A288B28A4280030C1000030C00000309D
:10012000BF000030BE008030C0047F30C1044B08E7
:10013000C2004208C1044108BD004008BC003F089D
:10014000BB003E08BA00032A5208031DA828A928AC
:10015000B2280030BD000030BC000030BB000030D1
:10016000BA00032A5208C200C3014308C50053085D
:100170004202C400031CC50344087F3ECC0045086E
:100180000318013E003ECD004108CA004008C900E6
:100190003F08C8003E08C7000030C1000030C00062
:1001A0000030BF000030BE000030D1000030D00071
:1001B0000030CF000030CE00D301282953080319A6
:1001C000E228E32803290130C2000310C70DC80D3F
:1001D000C90DCA0DC20BE5280130C2000310BE0DC7
:1001E000BF0DC00DC10DC20BEE28D11FF828F92894
:1001F000FA283E140130C2000310CE0DCF0DD00DF1
:10020000D10DC20BFC283D084A02031D11293C08F0
:100210004902031D11293B084802031D11293A0810
:100220004702031C14291529242951173A08C7022B
:100230003B08031C3B0FC8023C08031C3C0FC902CF
:100240003D08031C3D0FCA020130C2004208D3071B
:100250001A305302031C2D292E29DE284A0849048E
:100260004804470403193529362955294E145529C0
:100270000130C2000310BE0DBF0DC00DC10DC20B79
:100280003A29D11F4429452946293E140130C2008C
:100290000310CE0DCF0DD00DD10DC20B4829FF306C
:1002A000CC070318CD0AFF30CD07C01F58295929A4
:1002B0003829D301D11F5D295E297A29FF304E05E7
:1002C000C200FF304F05C300FF305005C4007F302F
:1002D0005105C5004508440443044204031971292B
:1002E00072297529D301D30A7A293E1C78297929E4
:1002F0007A297229530803197E297F29B0290130F0
:10030000BE07003003180130BF070030031801306A
:10031000C007003003180130C107411C9029912902
:10032000B0293E08C2003F08C3004008C40041088D
:10033000C5000130C600450DC50CC40CC30CC20C71
:10034000C60B9B294508C1004408C0004308BF00F4
:100350004208BE000130CC070318CD0A0030CD079B
:100360004D08803AFF0080307F02031DB929FF301D
:100370004C02031CBC29BD29CB29FF308312031377
:10038000CC000030CD000030C1000030C000003093
:10039000BF000030BE00831203134D08803AFF00F7
:1003A00080307F02031DD62901304C020318D92961
:1003B000DA29E72983120313CC01CD010030C100F3
:1003C0000030C0000030BF000030BE00CB018312FF
:1003D00003134C08C2004208D200521CF029F12934
:1003E000F329C017F7297F30C2004208C005520820
:1003F000C2000310420CC3004308C1004B08C200F6
:100400004208C1049B28080083120313570880394F
:10041000DC005C08E4005708DC005C07DD005D08D8
:10042000E600D61F142A152A162A66146608031930
:100430001A2A1B2A2B2A660A031D1F2A202A282A69
:100440000030D7000030D6000030D5000030D40096
:10045000D617D701332A0030D7000030D60000303D
:10046000D5000030D4005B088039DC005C08E50072
:100470006508640603193D2A3E2A3F2A64175B0873
:10048000DC005C07DD005D08E500DA1F482A492A28
:100490004A2A6514650803194E2A4F2A5F2A650AFD
:1004A000031D532A542A5C2A0030DB000030DA0096
:1004B0000030D9000030D800DA17DB01672A00309D
:1004C000DB000030DA000030D9000030D8006608C8
:1004D000650203186C2A6D2AB12A641F702A712ADA
:1004E000752A8030DC005C08E4066608DC005C08E5
:1004F000E7006508DC005C08E6006708DC005C08D3
:10050000E5005408DC005C08E7005808DC005C08E3
:10051000D4006708DC005C08D8005508DC005C08E3
:10052000E7005908DC005C08D5006708DC005C08BF
:10053000D9005608DC005C08E7005A08DC005C08BB
:10054000D6006708DC005C08DA005708DC005C08AD
:10055000E7005B08DC005C08D7006708DC005C088B
:10056000DB00E7016508DC00DD015D08DF006608EF
:100570005C02DE00031CDF035F08803AFF0080306E
:100580007F02031DC52A1A305E02031CC82AC92A2D
:10059000062B831203135708560455045404031DF5
:1005A000D22AD42A0130D52A0030DC005C08E700CA
:1005B0000030D7000030D6000030D5000030D40025
:1005C0006508DC005C08E6000E2B671CE82AE92AB7
:1005D000F22A6708DC0003105C0C0138DD005D08BE
:1005E000E700F42A0310E70C541CF72AF82AF92A2A
:1005F000E7170130DC00570DD70CD60CD50CD40C06
:10060000DC0BFB2A0130DC005C08E60783120313D5
:1006100065086602031C0D2B0E2BE52A641B112BAB
:10062000122B5D2B6608031D162B172B202B003079
:10063000D7000030D6000030D5000030D4008B2C1D
:100640005808D407590803110318013E0319292B30
:10065000D5075A0803110318013E0319302BD6079A
:100660005B0803110318013E0319372BD707571CEA
:100670003A2B3B2B112C671C3E2B3F2B482B67083A
:10068000DC0003105C0C0138DD005D08E7004A2B3C
:100690000310E70C541C4D2B4E2B4F2BE71701304A
:1006A000DC00570DD70CD60CD50CD40CDC0B512B21
:1006B0000130DC005C08E607112C5708803AFF0087
:1006C0005B08803A7F02031D6F2B5A085602031DF8
:1006D0006F2B59085502031D6F2B5808540203183D
:1006E000722B732BCB2BFF30DC00FF30DD00FF3093
:1006F000DE00FF30DF005808E0005908E1005A082A
:10070000E2005B08E3005408E0025508031C550FA3
:100710008A2B8B2BE1025608031C560F902B912B32
:10072000E2025708031C570F962B972BE302600831
:10073000DC0761080318610F9E2B9F2BDD07620801
:100740000318620FA42BA52BDE0763080318630AA6
:10075000DF075F08D7005E08D6005D08D5005C089B
:10076000D4008030DC005C08E406E709E70A67088B
:10077000031DBB2BBC2BD92B0130D4070030031831
:100780000130D507003003180130D60700300318B8
:100790000130D707D92B5808D4025908031C590F28
:1007A000D5025A08031C5A0FD6025B08031C5B0FC4
:1007B000D7025708560455045404031DE02BE12BBF
:1007C0000D2C6708031DE52BE62B0D2C0030D70000
:1007D0000030D6000030D5000030D4008B2C013022
:1007E000DC000310D40DD50DD60DD70DDC0BF12B8D
:1007F000E71FFB2BFC2BFD2B5414671C002C012C3A
:10080000042C0314E70D062C0310E70D66080319EA
:100810000A2C0B2C0D2C0130E602D61F102C112CAB
:10082000EF2BE501E71F152C162C242C67087F39C8
:1008300003191B2C1C2C1F2CE501E50A242C541C2D
:10084000222C232C242C1C2C65080319282C292C41
:100850005D2C0130D407003003180130D50700307B
:1008600003180130D607003003180130D707571C92
:100870003A2C3B2C5D2C5408DC005508DD00560852
:10088000DE005708DF000130E0005F0DDF0CDE0CFA
:10089000DD0CDC0CE00B452C5F08D7005E08D600B1
:1008A0005D08D5005C08D400660A0319582C592C41
:1008B0005D2C0130DC005C08E607660A0319612C38
:1008C000622C672C6608031D662C672C752C003083
:1008D000D7000030D6000030D5000030D4006608C4
:1008E000031D732C742C752CE401661C782C792C58
:1008F0007B2CD6177F2C7F30DC005C08D605660881
:10090000DC0003105C0CDD005D08D700E41F892CBF
:100910008A2C8B2CD71708008312031323088039E5
:10092000A8002808AD002308A8002807A900290866
:10093000B300A21F9C2C9D2C9E2C3314330803194A
:10094000A22CA32CB22C330A031DA72CA82CB02C4C
:100950000030A3000030A2000030A1000030A00051
:10096000A217BA2C0030A3000030A2000030A10072
:100970000030A00027088039A8002808AD06270805
:10098000A8002807A9002908B200A61FC82CC92C56
:10099000CA2C321432080319CE2CCF2CDE2C320A8A
:1009A000031DD32CD42CDC2C0030A7000030A60073
:1009B0000030A5000030A400A617E62C0030A700E8
:1009C0000030A6000030A5000030A4003208031952
:1009D000EA2CEB2CF02C3308031DEF2CF02CF92C17
:1009E0000030A3000030A2000030A1000030A000C1
:1009F000EC2F2008A8002808F00026080A128A1503
:100A000000210A128A11710883120313B9007008B9
:100A1000B8003808A800A901AA01AB012B08B10051
:100A20002A08B0002908AF002808AE003908A8003D
:100A3000A901AA01AB012B08B7002A08B6002908B2
:100A4000B5002808B4002108A8002808F0002508EF
:100A50000A128A1500210A128A11710883120313DF
:100A6000B9007008B8003808A800A901AA01AB01B4
:100A70002808AE07290803110318013E0319412D68
:100A8000AF072A0803110318013E0319482DB007C8
:100A90002B0803110318013E03194F2DB107390824
:100AA000A800A901AA01AB012808B407290803116D
:100AB0000318013E03195D2DB5072A080311031819
:100AC000013E0319642DB6072B0803110318013EDC
:100AD00003196B2DB7072208A8002808F000240886
:100AE0000A128A1500210A128A117108831203134F
:100AF000B9007008B8003808A800A901AA01AB0124
:100B00002808AE07290803110318013E0319892D8F
:100B1000AF072A0803110318013E0319902DB007EF
:100B20002B0803110318013E0319972DB10739084B
:100B3000A800A901AA01AB012808B40729080311DC
:100B40000318013E0319A52DB5072A080311031840
:100B5000013E0319AC2DB6072B0803110318013E03
:100B60000319B32DB7070830A8000310AE0DAF0D61
:100B7000B00DB10DA80BB52D2108A8002808F00074
:100B800024080A128A1500210A128A117108831298
:100B90000313B9007008B8003808A8003908A90084
:100BA000AA01AB012808AE07290803110318013E6A
:100BB0000319DB2DAF072A0803110318013E03199F
:100BC000E22DB0072B0803110318013E0319E92D8C
:100BD000B1072008A8002808F00025080A128A1585
:100BE00000210A128A11710883120313B9007008D8
:100BF000B8003808A8003908A900AA01AB012808E4
:100C0000AE07290803110318013E0319082EAF0788
:100C10002A0803110318013E03190F2EB0072B08F1
:100C200003110318013E0319162EB1070830A8005E
:100C30000310AE0DAF0DB00DB10DA80B182E20088E
:100C4000A8002808F00024080A128A1500210A12B8
:100C50008A11710883120313B9007008B8003808AC
:100C6000A8003908A900AA01AB012808AE07290885
:100C700003110318013E03193E2EAF072A08031182
:100C80000318013E0319452EB0072B080311031862
:100C9000013E03194C2EB1072108A8002808F000D6
:100CA00026080A128A1500210A128A117108831275
:100CB0000313B9007008B8003808A8003908A90063
:100CC000AA01AB012808B407290803110318013E43
:100CD00003196B2EB5072A0803110318013E0319E7
:100CE000722EB6072B0803110318013E0319792E43
:100CF000B7072208A8002808F00025080A128A155C
:100D000000210A128A11710883120313B9007008B6
:100D1000B8003808A8003908A900AA01AB012808C2
:100D2000B407290803110318013E0319982EB507CB
:100D30002A0803110318013E03199F2EB6072B083A
:100D400003110318013E0319A62EB7072208A800B5
:100D50002808F00026080A128A1500210A128A11B2
:100D6000710883120313B9007008B8003808A8008E
:100D70003908A900AA01AB0108300310A80DA90D7C
:100D8000AA0DAB0DFF3E031DBD2E2808B407290890
:100D900003110318013E0319CE2EB5072A080311CB
:100DA0000318013E0319D52EB6072B0803110318AB
:100DB000013E0319DC2EB7072E08A8002F08A90052
:100DC0003008AA003108AB0018300310AB0CAA0C95
:100DD000A90CA80CFF3E031DE52E2808B40729081E
:100DE00003110318013E0319F62EB5072A08031153
:100DF0000318013E0319FD2EB6072B080311031833
:100E0000013E0319042FB7070830A8000310AE0DE8
:100E1000AF0DB00DB10DA80B062F33083207A80097
:100E2000A901A90D2808823EB80029080318013E2F
:100E3000FF3EB900382F0130A8000310B40DB50DE6
:100E4000B60DB70DA80B1D2FB11F272F282F292F47
:100E500034140130A8000310AE0DAF0DB00DB10D6C
:100E6000A80B2B2FFF30B8070318B90AFF30B907BA
:100E7000B61F3B2F3C2F1B2FB201B11F402F412F1C
:100E80005D2FFF302E05A800FF302F05A900FF3091
:100E90003005AA007F303105AB002B082A04290455
:100EA00028040319542F552F582FB201B20A5D2F71
:100EB000341C5B2F5C2F5D2F552F32080319612FD7
:100EC000622F932F0130B407003003180130B507AB
:100ED000003003180130B607003003180130B7079F
:100EE000371C732F742F932F3408A8003508A900DE
:100EF0003608AA003708AB000130AC002B0DAB0C54
:100F0000AA0CA90CA80CAC0B7E2F2B08B7002A0842
:100F1000B6002908B5002808B4000130B807031846
:100F2000B90A0030B9073908803AFF0080307F02E3
:100F3000031D9C2FFF303802031C9F2FA02FAB2FC7
:100F40007F3083120313B7008030B6000030B50045
:100F50000030B400E02F831203133908803AFF00F9
:100F600080307F02031DB62F013038020318B92FDD
:100F7000BA2FC62F003083120313B7000030B6001B
:100F80000030B5000030B400AD01E02F8312031330
:100F90003808A8002808B300FF30B405FF30B505B5
:100FA0007F30B6050030B705331CD72FD82FD92F87
:100FB000B6173308A8000310280CA9002908B700A9
:100FC0002D08A8002808B7043708A3003608A20097
:100FD0003508A1003408A000080083120313EB01B8
:100FE000EC01ED01EE01EF0183160313A001A10155
:100FF000A201A301A401A50183010A128A157B2D78
:1010000008308A000408840A8207003420345334EC
:1010100031343A34203420342034533432343A34A6
:0E102000203420342034533433343A34003436
:1010A8000A128A1570200A128A158316031311145E
:1010B80008000A128A1570200A128A15831603136B
:1010C800111508000A128A1570200A128A1570086C
:1010D8008312031393000800831603131419752849
:1010E8007628702811081F39031D7B287C28702852
:1010F800080000300A128A159F200A128A1501304A
:101108000A128A159F200A128A150800F300F201B4
:10111800731C8F28902894287008F1007108F20732
:101128000310F00D0310F30C7308031D9C289D2871
:101138008C2872080800F30083120313081173083F
:101148000A128A15B9200A128A1583120313881500
:101158000B30F2006230F100F10BB028F20BB0282E
:1011680000008312031388110800F000701CBD28CA
:10117800BE28C228831203130816C5288312031336
:101188000812F01CC828C928CB288816CC28881231
:10119800701DCF28D028D2280817D3280813F01D8F
:1011A800D628D728D9288817DA2888130800F700FE
:1011B800F501F601F2287508770784000A128A15E6
:1011C80000200A128A150A128A158D210A128A1518
:1011D8000130F5070318F60A0030F6077508770797
:1011E80084000A128A1500200A128A15003A031D83
:1011F800FE28FF28DF280800F800F401F501700830
:10120800F200F3017208F6007308F700781C0D2944
:101218000E2914297608F4070318F50A7708F50744
:1012280001300310F60DF70DFF3E031D15290310BD
:10123800F80C7808031D212922290A297508F100CC
:101248007408F00008000A128A1570200A128A151C
:101258008316031391150A128A1570200A128A152B
:10126800831203131308F200F3017208F4007308E1
:10127800F5000A128A1570200A128A157003710483
:10128800031D472948294C298316031391124F2916
:1012980083160313911611167508F1007408F000EF
:1012A8000800283083120313940083160313910156
:1012B800831203132008A4002108A5002208A60011
:1012C8002308A70002300310A40DA50DA60DA70D35
:1012D800FF3E031D67292708F3002608F2002508AA
:1012E800F1002408F0000030F7007A30F6001230E0
:1012F800F5000030F4000A128A15D8220A128A155D
:101308007008FF3E83160313930094018715071690
:101318000800F40074080F39F1007108F20074082D
:10132800F039F1007108F3008312031308157308EC
:10133800F10004300310F10CFF3E031D9E297108D3
:101348000A128A15B9200A128A15831203138815FE
:101358001A30F100F10BAE29000083120313881133
:1013680072080A128A15B9200A128A158312031301
:1013780088151A30F100F10BBF29000083120313FE
:1013880088110800F7007703031DCB29CC29EF2922
:1013980074087F3EF5007508FA007A08F5000430F5
:1013A8000310F50CFF3E031DD4297508F6007608D6
:1013B800F8007A080F39F5007508F90078080A125C
:1013C8008A159F200A128A1579080A128A159F2001
:1013D8000A128A15172A02307706031DF429F529FF
:1013E800172A7408BF3EF5007508FA007A08F50058
:1013F80004300310F50CFF3E031DFD297508F600A7
:101408007608F8007A080F39F5007508F9007808A9
:101418000A128A159F200A128A1579080A128A1553
:101428009F200A128A15080000300A128A15B9206E
:101438000A128A153430F500F130F400F40B222A30
:10144800F50B222A272A03300A128A159F200A122E
:101458008A150D30F500FB30F400F40B312AF50B3A
:10146800312A362A03300A128A159F200A128A1551
:101478001D30F5009130F400F40B402AF50B402A9A
:1014880003300A128A159F200A128A1502300A129E
:101498008A159F200A128A1502300A128A159F207F
:1014A8000A128A1508300A128A159F200A128A150C
:1014B80000300A128A159F200A128A150C300A1267
:1014C8008A159F200A128A1500300A128A159F2051
:1014D8000A128A1506300A128A159F200A128A15DE
:1014E8000800FC007C08F9007908FD006430F00071
:1014F8000030F1007D08F900FA017908F2007A0855
:10150800F3000A128A153E230A128A157008FB0096
:101518007B0883120313EB009C30F9007908F00074
:101528006B080A128A158A200A128A157D07FA00A2
:101538007A08FD000A30F0000030F1007D08F9005B
:10154800FA017908F2007A08F3000A128A153E2394
:101558000A128A157008FB007B0883120313EC003B
:10156800F630F9007908F0006C080A128A158A200A
:101578000A128A157D07FA007A08FD007D08F9002D
:10158800790883120313ED006B08303EF9007908DF
:10159800EB006C08303EF9007908EC006D08303E2D
:1015A800F9007908ED0008000030FC000030FB006D
:1015B8000030FA000030F9007308720471047004F6
:1015C8000319E72AE82A352BFD01FD0AF82A01301C
:1015D800F8000310F00DF10DF20DF30DF80BED2AE4
:1015E8000130F8007808FD07F31FFB2AFC2AEB2AD4
:1015F8000130F8000310F90DFA0DFB0DFC0DF80B86
:10160800FE2A73087702031D132B72087602031D46
:10161800132B71087502031D132B70087402031C29
:10162800162B172B262B7008F4027108031C710F58
:10163800F5027208031C720FF6027308031C730F7D
:10164800F702791401300310F30CF20CF10CF00CD2
:10165800FF3E031D272B0130FD02031D342B352BC4
:10166800FC2A7C08F3007B08F2007A08F10079086C
:10167800F0000800F601F11F422B432B4A2BF0091A
:10168800F109F00A0319F10AF601F60AF31F4D2BC6
:101698004E2B572BF209F309F20A0319F30A01300A
:1016A800F4007408F606F701F801700871040319CC
:1016B8005E2B5F2B962BF501F50A6D2B013003107D
:1016C800F00DF10DFF3E031D632B0130F40074088B
:1016D800F507F11F702B712B622B01300310F70DEA
:1016E800F80DFF3E031D722B71087302031D7E2B3C
:1016F80070087202031C812B822B892B7008F2025E
:101708007108031CF303F302771401300310F10C82
:10171800F00CFF3E031D8A2B0130F502031D952BAB
:10172800962B712B760803199A2B9B2BA02BF70964
:10173800F809F70A0319F80A7808F1007708F000A1
:1017480008000310720D730DF4007408FA007A088B
:10175800031DAF2BB02BB92B0030F3000030F20083
:101768000030F1000030F0001E2C7008F400710801
:10177800F5007208F6007308F7001F300310F70C25
:10178800F60CF50CF40CFF3E031DC22B7408F80090
:101798007808F900F217FF30F005FF30F105FF3047
:1017A800F2050030F3059630FA02FA1FDC2BDD2B28
:1017B800F72B7A08803A973E0318E32BE42BE52BA6
:1017C800B02B01300310F30CF20CF10CF00CFF3EBF
:1017D800031DE62B0130F4007408FA07031DF52BEE
:1017E800F62BE52B0E2C20307A02031CFC2BFD2B4C
:1017F800092CB02B0130F4000310F00DF10DF20D9F
:10180800F30DF40B002C0130FA027A08031D0D2C9D
:101818000E2CFE2B79080319122C132C1E2CF00900
:10182800F109F209F309F00A0319F10A0319F20A96
:101838000319F30A080000307005F800003071053C
:10184800F90080307205FA007F307305FB007B08D1
:101858007A0479047804031D322C332C3B2C003095
:10186800F3000030F2000030F1000030F0000030EA
:101878007405F80000307505F90080307605FA0027
:101888007F307705FB007B087A0479047804031D10
:101898004E2C4F2C572C0030F7000030F60000304B
:1018A800F5000030F400F31F5A2C5B2C7F2C00301D
:1018B800F8000030F9000030FA008030FB007008B2
:1018C800F8027108031C710F6A2C6B2CF90272085C
:1018D800031C720F702C712CFA027308031C730F0F
:1018E800762C772CFB027B08F3007A08F200790843
:1018F800F1007808F000F71F822C832CA72C003009
:10190800F8000030F9000030FA008030FB0074085D
:10191800F8027508031C750F922C932CF9027608AF
:10192800031C760F982C992CFA027708031C770F62
:101938009E2C9F2CFB027B08F7007A08F60079089A
:10194800F5007808F4008030F3068030F706770851
:101958007302031DB92C76087202031DB92C750891
:101968007102031DB92C740870020318BC2CBD2C1D
:10197800BF2C0310C02C03140800F80078080319C2
:10198800C62CC72CDB2CF31FCA2CCB2CDB2C7009E4
:10199800FA007109FB007209FC007309FD00FA0ADC
:1019A8000319FB0A0319FC0A0319FD0AE32C73083F
:1019B800FD007208FC007108FB007008FA0073084B
:1019C800720471047004031DEA2CEB2CF42C003013
:1019D800F3000030F2000030F1000030F0007A2D02
:1019E8009630F4007408F900062D0130F4007408EC
:1019F800F90701300310FD0CFC0CFB0CFA0CFF3E40
:101A0800031DFE2CFE307D05031D0B2D0C2DF92C1E
:101A1800282D0130F4007408F9070130FA07003066
:101A280003180130FB07003003180130FC070030B1
:101A380003180130FD0701300310FD0CFC0CFB0CF2
:101A4800FA0CFF3E031D202DFF307D05031D2D2DB3
:101A58002E2D0D2D3A2D0130F9020130F40003101E
:101A6800FA0DFB0DFC0DFD0DF40B332DFC1B3D2D6C
:101A78003E2D442D023079020318432D442D2F2D7D
:101A88007918472D482D502DFF30FA05FF30FB05FA
:101A98007F30FC05FF30FD050310F90C7908F400D0
:101AA800F501F601F70118300310F40DF50DF60DE8
:101AB800F70DFF3E031D582D7408FA047508FB0442
:101AC8007608FC047708FD04780803196C2D6D2D41
:101AD800722DF31F702D712D722DFD177D08F300E7
:101AE8007C08F2007B08F1007A08F00008000A126E
:101AF8008A1103200A128A150A128A1518220A1254
:101B08008A150A128A157D200A128A150A128A1560
:101B180054200A128A155130F0000030F1000A12E0
:101B28008A1566200A128A150030F000F1000A12A0
:101B38008A1527210A128A15700883120313E800F0
:101B48006808EE000A128A155D200A128A15033009
:101B580083120313EA000830E9007630E800E80B46
:101B6800B32DE90BB32DEA0BB32D00000A128A1529
:101B780054200A128A156130F0000030F1000A1270
:101B88008A1566200A128A150030F000F1000A1240
:101B98008A1527210A128A15700883120313E80090
:101BA8006808EF000A128A155D200A128A150330A8
:101BB80083120313EA000830E9007630E800E80BE6
:101BC800E32DE90BE32DEA0BE32D00000A128A1539
:101BD80054200A128A158030F0000030F1000A12F1
:101BE8008A1566200A128A15F330F0000030F100D9
:101BF8000A128A1566200A128A150A128A155D20A9
:101C08000A128A15033083120313EA000830E90028
:101C18007630E800E80B0E2EE90B0E2EEA0B0E2E9E
:101C280000000A128A1554200A128A158130F00021
:101C38000030F1000A128A1566200A128A1500304F
:101C4800F000F1000A128A1527210A128A15700875
:101C580083120313E900E801680883160313A4003C
:101C680083120313690883160313A5000030F000DC
:101C7800F1000A128A1527210A128A15700883169C
:101C88000313A4070318A50A7108A5070A128A15E1
:101C98005D200A128A15033083120313EA00083004
:101CA800E9007630E800E80B572EE90B572EEA0BCF
:101CB800572E0000C23083120313D7003B30D600E2
:101CC8006630D5006630D4004730BD008030BC0097
:101CD8000030BB000030BA004330A3002F30A20010
:101CE800B830A1005230A000831603132408F00076
:101CF8002508F100F201F30100300A128A15C12407
:101D08000A128A15730883120313A7007208A60023
:101D18007108A5007008A4000A128A118C240A12FE
:101D28008A15831203132308C1002208C000210862
:101D3800BF002008BE000A128A1127200A128A153D
:101D4800831203133D08DB003C08DA003B08D90086
:101D58003A08D8000A128A1104220A128A15831234
:101D68000313570883160313A3008312031356089B
:101D780083160313A2008312031355088316031353
:101D8800A10083120313540883160313A000F4015F
:101D9800F40A01300A128A15C6210A128A1501307E
:101DA8000A128A15DB200A128A15023083120313DD
:101DB800E8006808F40002300A128A15C6210A12DF
:101DC8008A15831203136E080A128A1575220A12DD
:101DD8008A15831203136B080A128A158D210A12B9
:101DE8008A15831203136C080A128A158D210A12A8
:101DF8008A15831203136D080A128A158D210A1297
:101E08008A15093083120313E8006808F4000230C9
:101E18000A128A15C6210A128A15831203136F083B
:101E28000A128A1575220A128A15831203136C087E
:101E38000A128A158D210A128A15831203136D0856
:101E48000A128A158D210A128A158316031323088C
:101E5800F3002208F2002108F1002008F000003009
:101E6800F7000030F6000030F5000030F4000A12E8
:101E78008A151F240A128A150318432F442F962FF8
:101E8800BF3083120313A3008030A2000030A100EA
:101E98000030A00083160313230883120313A7003E
:101EA80083160313220883120313A6008316031351
:101EB800210883120313A500831603132008831235
:101EC8000313A4000A128A118C240A128A15831299
:101ED8000313230883160313A30083120313220892
:101EE80083160313A2008312031321088316031316
:101EF800A10083120313200883160313A0000D30DA
:101F080083120313E8006808F40002300A128A15E5
:101F1800C6210A128A152D300A128A158D210A1235
:101F28008A15C32F831603132308F3002208F2002F
:101F38002108F1002008F0000030F7000030F6001A
:101F48000030F5000030F4000A128A151F240A1226
:101F58008A15031CB02FB12FC32F0D308312031322
:101F6800E8006808F40002300A128A15C6210A122D
:101F78008A1520300A128A158D210A128A150E3008
:101F880083120313E8006808F40002300A128A1565
:101F9800C6210A128A15831603132308F3002208A0
:101FA800F2002108F1002008F0000A128A15A52382
:101FB8000A128A1570080A128A1575220A128A15D9
:101FC800831203136B080A128A158D210A128A15C7
:101FD800831203136C080A128A158D210A128A15B6
:101FE800831203136D080A128A158D210A128A15A5
:081FF8008A2D0A128A1100284B
:04400E00D420FF3F7C
:00000001FF
