:020000040000FA
:060000000A128A110C280F
:10000800FE00030EF1000A08F2000A128A11512CB0
:100018000A128A110F28F801F901FA018312031351
:10002800AC01AD01AE01AF01B001B10183010A120B
:100038008A111E280A128A1114240A128A110A1215
:100048008A11C6230A128A110A128A112B250A124A
:100058008A11F701F70A01300A128A116E230A126F
:100068008A1179300A128A118A240A128A11831293
:1000780003139F1430080A128A1107230A128A11DF
:10008800F701F70A02300A128A116E230A128A113E
:10009800831203132C080A128A11D2240A128A1115
:1000A80090300A128A118A240A128A1183120313C1
:1000B8002D080A128A11D2240A128A1183120313F4
:1000C8002E080A128A11D2240A128A118D300A12B5
:1000D8008A118A240A128A11831203130C1E7528A6
:1000E8007628F028C33083120313AA00CC30A90065
:1000F800A90B7C28AA0B7C28000057300A128A1109
:10010800B3240A128A11C33083120313AA00CC3015
:10011800A900A90B8D28AA0B8D28000083120313B0
:100128000C1E972898289A282C089900C330831207
:100138000313AA00CC30A900A90BA028AA0BA02859
:100148000000831203130C1EAA28AB28AD282E30FA
:100158009900C33083120313AA00CC30A900A90B5D
:10016800B328AA0BB3280000831203130C1EBD2862
:10017800BE28C0282D089900C33083120313AA0093
:10018800CC30A900A90BC628AA0BC62800008312E8
:1001980003130C1ED028D128D3282E0899008230AA
:1001A80083120313AA00DD30A900A90BD928AA0BD2
:1001B800D928831203130C1EE228E328E5280D3002
:1001C8009900C33083120313AA00CC30A900A90BED
:1001D800EB28AA0BEB2800008312031331080A123C
:1001E8008A1107230A128A11831203132C080A1290
:1001F8008A11D2240A128A1190300A128A118A248A
:100208000A128A11831203132D080A128A11D224A2
:100218000A128A11831203132E080A128A11D22491
:100228000A128A1192300A128A118A240A128A1131
:100238008A300A128A118A240A128A118312031335
:100248000C1E27292829A229C33083120313AA00C8
:10025800CC30A900A90B2E29AA0B2E290000683042
:100268000A128A11B3240A128A11C33083120313A3
:10027800AA00CC30A900A90B3F29AA0B3F290000EE
:10028800831203130C1E49294A294C292C0899006A
:10029800C33083120313AA00CC30A900A90B52293A
:1002A800AA0B52290000831203130C1E5C295D2936
:1002B8005F292E309900C33083120313AA00CC3073
:1002C800A900A90B6529AA0B65290000831203134D
:1002D8000C1E6F29702972292D089900C3308312CA
:1002E8000313AA00CC30A900A90B7829AA0B7829F6
:1002F8000000831203130C1E8229832985292E08E6
:100308009900823083120313AA00DD30A900A90BDB
:100318008B29AA0B8B29831203130C1E9429952968
:1003280097290D309900C33083120313AA00CC30EB
:10033800A900A90B9D29AA0B9D290000831203136C
:100348002F080A128A1107230A128A11831203132B
:100358002C080A128A11D2240A128A118312031352
:100368002D080A128A11D2240A128A118312031341
:100378002E080A128A11D2240A128A1141308312D5
:100388000313AA00ED30A900A90BC829AA0BC82994
:10039800CD2901300A128A11B3240A128A11413078
:1003A80083120313AA00ED30A900A90BD929AA0BBF
:1003B800D929DE292C300A128A11B3240A128A118B
:1003C800831203138C1EE929EA29E4291A08A900D3
:1003D8002908AB002B302B06031DF329F429F92932
:1003E8000130A9002908AF073B282D302B06031D33
:1003F800FE29FF293B280130AF023B280A128A1147
:100408000C2802308A000408840A820700340D345C
:100418005334693420346434653473346534613456
:10042800203469346E346334723465346D34653421
:100438006E34743461347234203465346C3420344E
:10044800733465346E3473346F3472343334203417
:1004580061347034613463346834653420342B3447
:100468000D3400340D345334693420346434653425
:1004780073346534613420346434653463347234DD
:1004880065346D3465346E347434613472342034B8
:1004980065346C342034733465346E3473346F349B
:1004A80072343334203461347034613463346834E2
:1004B800653420342D340D340034563441344C34F2
:1004C8004F345234203444344534203450344F347B
:1004D800543431343A3420340D34003456344134F1
:1004E8004C344F345234203444344534203450345E
:1004F8004F34543432343A3420340D3400342034F8
:10050800533431343A3420342034203453343234A0
:100518003A34203420342034533433343A340034D9
:100528002034203400345634203400342E3400343F
:100538005634003483120313A101F41FA42AA52AF8
:10054800AC2AF309F409F30A0319F40AA101A10A70
:10055800F61FAF2AB02AB92AF509F609F50A0319D0
:10056800F60A0130F7007708A106A201A301730873
:1005780074040319C02AC12AF82AA001A00ACF2AA4
:1005880001300310F30DF40DFF3E031DC52A0130A1
:10059800F7007708A007F41FD22AD32AC42A01300B
:1005A8000310A20DA30DFF3E031DD42A7408760282
:1005B800031DE02A73087502031CE32AE42AEB2AC8
:1005C8007308F5027408031CF603F60222140130BE
:1005D8000310F40CF30CFF3E031DEC2A0130A002BB
:1005E800031DF72AF82AD32A21080319FC2AFD2A11
:1005F800022BA209A309A20A0319A30A2308F400DB
:100608002208F300080083120313A7002708A40098
:100618002408A8006430F3000030F4002808A4007F
:10062800A5012408F5002508F6000A128A119E2261
:100638000A128A11730883120313A6002608AC0055
:100648009C30A4002408F3002C080A128A110925FA
:100658000A128A11831203132807A5002508A80087
:100668000A30F3000030F4002808A400A50124088B
:10067800F5002508F6000A128A119E220A128A112C
:10068800730883120313A6002608AD00F630A400F1
:100698002408F3002D080A128A1109250A128A1162
:1006A800831203132807A5002508A8002808A4001A
:1006B8002408AE002C08303EA4002408AC002D0805
:1006C800303EA4002408AD002E08303EA4002408C3
:1006D800AE00080083120313A2002203031D752B2A
:1006E800762B9B2B77087F3EA0002008A5002508C5
:1006F800A00004300310A00CFF3E031D7E2B200831
:10070800A1002108A30025080F39A0002008A40093
:1007180023080A128A11EF240A128A11831203137A
:1007280024080A128A11EF240A128A11C52B0230F2
:100738002206031DA02BA12BC52B7708BF3EA000C6
:100748002008A5002508A00004300310A00CFF3ED7
:10075800031DA92B2008A1002108A3002508F039B2
:10076800A0002008A40023080A128A11EF240A1204
:100778008A118312031324080A128A11EF240A1219
:100788008A11080000300A128A1142250A128A11B9
:100798001A3083120313A100F730A000A00BD22B4C
:1007A800A10BD22BD72B30300A128A11EF240A1250
:1007B8008A11073083120313A1007C30A000A00B1C
:1007C800E32BA10BE32B000030300A128A11EF242F
:1007D8000A128A11233083120313A000A00BF22BF4
:1007E800F52B30300A128A11EF240A128A11383098
:1007F8000A128A11EF240A128A1108300A128A1181
:10080800EF240A128A1101300A128A11EF240A12FF
:100818008A1106300A128A11EF240A128A11080076
:100828000330831603178800890183160313880190
:100838008901051485148312031388018501890130
:10084800831603130F178F160F120F140A128A112B
:100858001E250A128A118316031318158316031707
:100868008711831603131812831203139817181687
:10087800831603139816831203131813193083165B
:100888000313990001309A008B17831203130C137A
:10089800831603130C170B170800831203130C1F7E
:1008A800562C572C832C1F0CF000700C0F39013A72
:1008B800031D5F2C602C6D2CC3309F050A128A1112
:1008C80048250A128A11F000700883120313B10038
:1008D8007B2C1F08C33904389F000A128A11482547
:1008E8000A128A11F000700883120313B000103046
:1008F800F000F00B7D2C0000831203130C13720818
:100908008A00710E8300FE0E7E0E09008312031307
:10091800A200A001A101A52C2008220784000A1228
:100928008A1105220A128A110A128A11D2240A127D
:100938008A11013083120313A0070318A10A00309B
:10094800A1072008220784000A128A1105220A1228
:100958008A11003A031DB12CB22C902C0800F70024
:100968007030F4007408F500BF2C76080A128A115A
:1009780038250A128A110130F707FF3077078400FB
:100988000A128A1105220A128A11F4007408F60064
:100998007608031DD02CD12CB92C0800F500750859
:1009A800F4007408F6007608F4007408F70083125F
:1009B8000313091477080A128A1142250A128A11A8
:1009C8008312031309150D30F400F40BE92C83127C
:1009D800031309110800F60083120313091076089F
:1009E8000A128A1142250A128A1183120313091561
:1009F8000630F5003030F400F40B002DF50B002D17
:100A080000008312031309110800F600F501761C93
:100A18000E2D0F2D132D7308F4007408F50703101D
:100A2800F30D0310F60C7608031D1B2D1C2D0B2D42
:100A380075080800C330831203139F059F171F17FB
:100A48001F14831603139F131F129F1208000030F0
:100A58000A128A11EF240A128A1101300A128A1125
:100A6800EF240A128A110800F300831203130C1EE4
:100A78003E2D3F2D392D730899000800F3007308A7
:100A88008312031388000800831203131E0808004A
:04400E00D420FF3F7C
:00000001FF
