:020000040000FA
:100000000A128A11EB2FFF0000308A007F08820756
:1000100008280A128A11732900308A000408840A09
:1000200082070034013400340A340034643400346C
:10003000E83403341034273450346F3472342034AD
:100040006634613476346F347234203469346E34FB
:100050006734723465347334653420346C346134FD
:100060002034633465346E34743465346E346134F2
:100070002C342034733469342034653473342034A0
:100080003C34313430343034203463346F346C34A5
:100090006F34633461347234203430340D340034BE
:1000A00049346E34743472346F34643475347A3451
:1000B00063346134203475346E34203476346134E2
:1000C0006C346F34723420346D3465346E346F3474
:1000D000723420346F3420346934673475346134B9
:1000E0006C3420346134203435340D3400344934D8
:1000F0006E34743472346F34643475347A346334E7
:100100006134203475346E342034763461346C3488
:100110006F3472342034763461346C34693464342E
:100120006F34203464346534203430342034613406
:10013000203432340D34003450346F34723420346F
:100140006634613476346F347234203469346E34FA
:100150006734723465347334653420346C346134FC
:10016000203464346534633465346E3461340D3462
:10017000003450346F347234203466346134763451
:100180006F347234203469346E34673472346534B9
:100190007334653420346C346134203475346E34F7
:1001A00069346434613464340D3400345634413479
:1001B0004C344F3452342034443445342034503499
:1001C0004F34543431343A3420340D3400345634FE
:1001D00041344C344F345234203444344534203488
:1001E00050344F34543432343A3420340D340034E3
:0601F000253464340034E4
:1002BC00F0007008831203139300080083160313D5
:1002CC00141C69296A296429080064008001840AC5
:1002DC0004060319003404066C29831203130C1E44
:1002EC007829792973297008990008000A128A1153
:1002FC0064210A128A118312031313080800F100F7
:10030C00F0013A30710203188C298D29952930306F
:10031C007102031C922993299529F001F00A700CA3
:10032C000800F300F201731C9C299D29A129700877
:10033C00F1007108F2070310F00D0310F30C7308B1
:10034C00031DA929AA29992972080800F30083160C
:10035C0003138712731DB329B429B82972089400AA
:10036C008715BC29700872049400871173087104F6
:10037C0083120313940008000330831203131A0230
:10038C00031CC929CA29D02966300A128A111022E5
:10039C000A128A11831203138C1ED529D629D0294F
:1003AC001A08D03EE1006108A20008000630831252
:1003BC0003131A02031CE329E429EA293F300A1229
:1003CC008A1110220A128A11831203138C1EEF2930
:1003DC00F029EA291A08D03EE1006108A1000800C2
:1003EC000630831203131A02031CFD29FE29042A6A
:1003FC003F300A128A1110220A128A118312031337
:10040C008C1E092A0A2A042A1A08D03EE100610827
:10041C00A000080083120313DE00DF010130DB00B3
:10042C005B08E0007030DB005B08DD005E08DB0081
:10043C005B08D0005D30DC005C08D1005F300A1234
:10044C008A1194240A128A11080083120313E10002
:10045C006108DE005E08E200E3015C30DE005E084D
:10046C00E0005B08DE005E08D0006030DF005F0853
:10047C00D10062300A128A1194240A128A11831252
:10048C00031362088400831380010800F401F50152
:10049C00701C512A522A582A7208F4070318F50ABC
:1004AC007308F50701300310F20DF30DFF3E031D29
:1004BC00592A01300310F10CF00CFF3E031D602A89
:1004CC0070087104031D6B2A6C2A4E2A7508F10002
:1004DC007408F0000800F2007208F1007108F300D3
:1004EC007B2A0130F1007108F30773088400831331
:1004FC000008031D822A832A772A8C2A0130F100F6
:10050C007108F3070130F1007108F00770088400DE
:10051C000008F10073088400710880000008031DB6
:10052C00982A992A842A08008316031788018901BE
:10053C0083160313071186018801831203138601A6
:10054C008801831603130F178F160F120F1418152B
:10055C0083160317871183160313181283120313C0
:10056C00981718168316031398168312031318136F
:10057C00193083160313990001309A008312031368
:10058C000715F001F101F20120300A128A11AC2199
:10059C000A128A110800780879040319D62AD72A76
:1005AC00062BFD01FD0AE52A01300310F80DF90DAB
:1005BC00FF3E031DDB2A0130FC007C08FD07F91F00
:1005CC00E82AE92ADA2A79087B02031DEF2A78083F
:1005DC007A02031CF22AF32AF92A7808FA0279081B
:1005EC00031CFB03FB0201300310F90CF80CFF3E5B
:1005FC00031DFA2A0130FD02031D052B062BE92AE7
:10060C007B08F9007A08F8000800F501F60170087B
:10061C0071040319122B132B4A2BF701F70A212B08
:10062C0001300310F00DF10DFF3E031D172B0130AF
:10063C00F4007408F707F11F242B252B162B01301F
:10064C000310F50DF60DFF3E031D262B71087302EA
:10065C00031D322B70087202031C352B362B3D2BDD
:10066C007008F2027108031CF303F30275140130D5
:10067C000310F10CF00CFF3E031D3E2B0130F70272
:10068C00031D492B4A2B252B7608F1007508F00029
:10069C000800FC007C08F9007908FD006430F000CB
:1006AC000030F1007D08F900FA017908F2007A08AF
:1006BC00F3000A128A11B2230A128A117008FB0085
:1006CC007B0883120313A5009C30F9007908F00015
:1006DC0025080A128A1197210A128A117D07FA003D
:1006EC007A08FD000A30F0000030F1007D08F900B6
:1006FC00FA017908F2007A08F3000A128A11B2237F
:10070C000A128A117008FB007B0883120313A400E1
:10071C00F630F9007908F00024080A128A119721A2
:10072C000A128A117D07FA007A08FD007D08F9008B
:10073C00790883120313A3002508303EF9007908C9
:10074C00A5002408303EF9007908A4002308303EA7
:10075C00F9007908A3000800F601F11FB62BB72B9E
:10076C00BE2BF009F109F00A0319F10AF601F60A99
:10077C00F31FC12BC22BCB2BF209F309F20A03197D
:10078C00F30A0130F4007408F606F701F80170085A
:10079C0071040319D22BD32B0A2CF501F50AE12B8A
:1007AC0001300310F00DF10DFF3E031DD72B01306E
:1007BC00F4007408F507F11FE42BE52BD62B013060
:1007CC000310F70DF80DFF3E031DE62B71087302A5
:1007DC00031DF22B70087202031CF52BF62BFD2B5C
:1007EC007008F2027108031CF303F3027714013052
:1007FC000310F10CF00CFF3E031DFE2B0130F50233
:10080C00031D092C0A2CE52B760803190E2C0F2C32
:10081C00142CF709F809F70A0319F80A7808F100FB
:10082C007708F0000800FD001F2C0130F800780854
:10083C00FD077D0884002030831300060319272C44
:10084C00282C1B2C7D0884000930000603192F2C42
:10085C00302C1B2CFB01FC01FA017D0884002D308F
:10086C000006031D3A2C3B2C442C0130F800780870
:10087C00FA070130F8007808FD07722C7D08840017
:10088C002B300006031D4B2C4C2C722C0130F80025
:10089C007808FD07722C7D0884007C08F1007B0829
:1008AC00F0000A30F2000030F3000A128A114C22D8
:1008BC000A128A11831300087007F800003003181D
:1008CC0001307107F9007808D03EFB007908031855
:1008DC00013EFF3EFC004C2C7D08840000080A12EF
:1008EC008A1185210A128A1103187D2C7E2C512C19
:1008FC007A080319822C832C8F2C7B09F8007C0935
:10090C00F900F80A0319F90A7808F6007908F700D3
:10091C00932C7C08F7007B08F60008008312031365
:10092C00DA00B12D2530590603199D2C9E2CC42CB0
:10093C005A0A8400831300080319A52CA62CB52C85
:10094C005908D2005208F0005A0A840000080A1212
:10095C008A1103200A128A1183120313972C590847
:10096C00D2005A088400000884005208800001302C
:10097C00D2005A08840052088007972CD501013008
:10098C00D007FF30500784000A128A110C200A127B
:10099C008A11D900D200D3015308003A0319D72C7D
:1009AC00B12D5208003A0319C52D643A0319E22CF3
:1009BC000D3A0319E22CB12D510884008313000861
:1009CC00D20002308007520884000008D700840A45
:1009DC000008D800D81FF32CF42CFD2C0330D200C7
:1009EC005208D504D709D809D70A0319D80AD9014E
:1009FC00D90A5908D2005207013E84000A128A1102
:100A0C000C200A128A11D3000A128A110C200A1225
:100A1C008A11D40054085802031D162D530857028E
:100A2C000318192D1A2D1B2D252D0130D20052081B
:100A3C00D90705305906031D242D252DFF2C5508EB
:100A4C00033903192A2D2B2D4E2D5A0A840083139A
:100A5C0000080319322D332D402D2D30D2005208B1
:100A6C00F0005A0A840000080A128A1103200A12A4
:100A7C008A114E2D2D30D2005A08840000088400B3
:100A8C00520880000130D2005A08840052088007B6
:100A9C00831203135908D2005208D600A62D0A302F
:100AAC00F8000030F9005608D2005207013E8400CD
:100ABC000A128A110C200A128A11F0000A128A11E9
:100ACC000C200A128A11F1005808F3005708F200A2
:100ADC000A128A110B230A128A117108FB00700882
:100AEC00FA000A128A11D1220A128A117808303EB1
:100AFC0083120313D3005308D9005A0A84008313BA
:100B0C00000803198A2D8B2D982D5908D2005208F4
:100B1C00F0005A0A840000080A128A1103200A12F3
:100B2C008A11A62D5908D2005A08840000088400A6
:100B3C00520880000130D2005A0884005208800705
:100B4C00FF3083120313D2005208D607560A031D36
:100B5C00B02DB12D552D013083120313D007FF306A
:100B6C00500784000A128A110C200A128A11D20032
:100B7C005208D9005908031DC42DC52D982CD0013D
:100B8C00D10108000A128A119A220A128A118312C0
:100B9C0003130711C73083120313E400D52DE40BA4
:100BAC00D42DD82D0A300A128A115E210A128A110C
:100BBC000A128A117C210A128A1183120313E4008F
:100BCC006408A700C73083120313E400ED2DE40B77
:100BDC00EC2DF02D0A300A128A115E210A128A11AC
:100BEC000A128A117C210A128A1183120313E4005F
:100BFC006408A600C73083120313E400052EE40B2F
:100C0C00042E082E83120313071527080A128A11C3
:100C1C004F230A128A11831203130C1E162E172E41
:100C2C00922E413083120313E500ED30E400E40B07
:100C3C001D2EE50B1D2E222EC5300A128A111022F4
:100C4C000A128A11413083120313E500ED30E400DF
:100C5C00E40B2E2EE50B2E2E332E831203130C1EBB
:100C6C00382E392E3B2E2508990041308312031360
:100C7C00E500ED30E400E40B412EE50B412E462E51
:100C8C00831203130C1E4B2E4C2E4E2E2E3099001D
:100C9C00413083120313E500ED30E400E40B542ED5
:100CAC00E50B542E592E831203130C1E5E2E5F2E51
:100CBC00612E24089900413083120313E500ED30B6
:100CCC00E400E40B672EE50B672E6C2E83120313E6
:100CDC000C1E712E722E742E230899004130831233
:100CEC000313E500ED30E400E40B7A2EE50B7A2ECD
:100CFC007F2E831203130C1E842E852E872E0D300F
:100D0C009900413083120313E500ED30E400E40B4D
:100D1C008D2EE50B8D2E922E8312031326080A12AC
:100D2C008A114F230A128A11831203130C1E9F2E51
:100D3C00A02E1B2F413083120313E500ED30E4008D
:100D4C00E40BA62EE50BA62EAB2ED6300A128A117A
:100D5C0010220A128A11413083120313E500ED3080
:100D6C00E400E40BB72EE50BB72EBC2E8312031355
:100D7C000C1EC12EC22EC42E2508990041308312A0
:100D8C000313E500ED30E400E40BCA2EE50BCA2E8C
:100D9C00CF2E831203130C1ED42ED52ED72E2E300D
:100DAC009900413083120313E500ED30E400E40BAD
:100DBC00DD2EE50BDD2EE22E831203130C1EE72E27
:100DCC00E82EEA2E24089900413083120313E50023
:100DDC00ED30E400E40BF02EE50BF02EF52E831233
:100DEC0003130C1EFA2EFB2EFD2E23089900413006
:100DFC0083120313E500ED30E400E40B032FE50B45
:100E0C00032F082F831203130C1E0D2F0E2F102FE0
:100E1C000D309900413083120313E500ED30E400EE
:100E2C00E40B162FE50B162F1B2F0B300A128A1111
:100E3C0010220A128A11831203138C1E262F272FBD
:100E4C00212F1A08D03EE4006408A200322F0A12A7
:100E5C008A11C2210A128A113330831203131A0227
:100E6C000318392F3A2F2D2F8B300A128A1110228A
:100E7C000A128A11831203138C1E452F462F402F02
:100E8C001A08D03EE4006408A10002302206031DBB
:100E9C00502F512F5F2F572F0A128A11DC210A1263
:100EAC008A113630831203131A0203185E2F5F2F38
:100EBC00522FA8300A128A1110220A128A11831298
:100ECC0003138C1E6A2F6B2F652F1A08D03EE4007B
:100EDC006408A00002302206031D752F762F8A2F7E
:100EEC0005302106031D7B2F7C2F8A2F822F0A129F
:100EFC008A11F6210A128A113630831203131A0250
:100F0C000318892F8A2F7D2FE730E4006408DB005B
:100F1C002208E500E6016508DC006608DD003C30CF
:100F2C000A128A112B220A128A11E7308312031338
:100F3C00E4006408DB002108E500E6016508DC003C
:100F4C006608DD0028300A128A112B220A128A1137
:100F5C00E73083120313E4006408DB002008E5008B
:100F6C00E6016508DC006608DD00A0300A128A1173
:100F7C002B220A128A11283083120313E40064080E
:100F8C00F0003C300A128A1171220A128A11A03028
:100F9C0083120313E4006408F0003C300A128A1137
:100FAC0071220A128A113C300A128A1119240A126F
:100FBC008A11770883120313E8007608E7006708A4
:100FCC008600CD2D0A128A1100288313203084004C
:100FDC0050300A128A116B210A128A11A030840037
:100FEC00B4300A128A116B210A128A1183010A1277
:040FFC008A11C82D61
:04400E00D420FF3F7C
:00000001FF
