:020000040000FA
:100000000A128A11EC2FFF0000308A007F08820755
:0800100008280A128A15122BC0
:10001A00F80078080319122813282728F31F16282E
:10002A00172827287009FA007109FB007209FC00D9
:10003A007309FD00FA0A0319FB0A0319FC0A0319DA
:10004A00FD0A2F287308FD007208FC007108FB00E6
:10005A007008FA007308720471047004031D3628CC
:10006A00372840280030F3000030F2000030F10059
:10007A000030F000C6289630F4007408F9005228BF
:10008A000130F4007408F90701300310FD0CFC0C70
:10009A00FB0CFA0CFF3E031D4A28FE307D05031DAA
:1000AA0057285828452874280130F4007408F9079D
:1000BA000130FA07003003180130FB07003003183B
:1000CA000130FC07003003180130FD07013003102E
:1000DA00FD0CFC0CFB0CFA0CFF3E031D6C28FF30D8
:1000EA007D05031D79287A28592886280130F902C6
:1000FA000130F4000310FA0DFB0DFC0DFD0DF40B9D
:10010A007F28FC1B89288A28902802307902031844
:10011A008F2890287B287918932894289C28FF30C8
:10012A00FA05FF30FB057F30FC05FF30FD050310A3
:10013A00F90C7908F400F501F601F70118300310FB
:10014A00F40DF50DF60DF70DFF3E031DA4287408F6
:10015A00FA047508FB047608FC047708FD0478089D
:10016A000319B828B928BE28F31FBC28BD28BE2801
:10017A00FD177D08F3007C08F2007B08F1007A087D
:10018A00F00008008312031341088039C2004208B4
:10019A00CB004108C2004207C3004308D200C01F77
:1001AA00D728D828D928521452080319DD28DE285E
:1001BA00EE28520A031DE228E328EB280030C1008A
:1001CA000030C0000030BF000030BE00C017C101BF
:1001DA00F6280030C1000030C0000030BF000030F7
:1001EA00BE003D088039C2004208CB063D08C20065
:1001FA004207C3004308D300BC1F04290529062966
:10020A005314530803190A290B291B29530A031DDE
:10021A000F29102918290030BD000030BC00003019
:10022A00BB000030BA00BC17BD0123290030BD0055
:10023A000030BC000030BB000030BA003D083C046E
:10024A003B043A04031D2A292B2944290030C10002
:10025A000030C0000030BF000030BE008030C00453
:10026A007F30C1044B08C2004208C1044108BD00E6
:10027A004008BC003F08BB003E08BA00A32A520847
:10028A00031D4829492952290030BD000030BC000D
:10029A000030BB000030BA00A32A5208C200C301D2
:1002AA004308C50053084202C400031CC50344089E
:1002BA007F3ECC0045080318013E003ECD004108B0
:1002CA00CA004008C9003F08C8003E08C7000030FD
:1002DA00C1000030C0000030BF000030BE00003056
:1002EA00D1000030D0000030CF000030CE00D30162
:1002FA00C8295308031982298329A3290130C20076
:10030A000310C70DC80DC90DCA0DC20B85290130CE
:10031A00C2000310BE0DBF0DC00DC10DC20B8E2948
:10032A00D11F982999299A293E140130C200031035
:10033A00CE0DCF0DD00DD10DC20B9C293D084A021E
:10034A00031DB1293C084902031DB1293B08480293
:10035A00031DB1293A084702031CB429B529C42947
:10036A0051173A08C7023B08031C3B0FC8023C0856
:10037A00031C3C0FC9023D08031C3D0FCA02013091
:10038A00C2004208D3071A305302031CCD29CE29D2
:10039A007E294A084904480447040319D529D6295D
:1003AA00F5294E14F5290130C2000310BE0DBF0D08
:1003BA00C00DC10DC20BDA29D11FE429E529E629AE
:1003CA003E140130C2000310CE0DCF0DD00DD10D59
:1003DA00C20BE829FF30CC070318CD0AFF30CD073E
:1003EA00C01FF829F929D829D301D11FFD29FE29CF
:1003FA001A2AFF304E05C200FF304F05C300FF30F6
:10040A005005C4007F305105C50045084404430423
:10041A0042040319112A122A152AD301D30A1A2AC5
:10042A003E1C182A192A1A2A122A530803191E2AA4
:10043A001F2A502A0130BE07003003180130BF07B7
:10044A00003003180130C007003003180130C1071B
:10045A00411C302A312A502A3E08C2003F08C300F4
:10046A004008C4004108C5000130C600450DC50C4E
:10047A00C40CC30CC20CC60B3B2A4508C100440875
:10048A00C0004308BF004208BE000130CC07031871
:10049A00CD0A0030CD074D08803AFF0080307F0238
:1004AA00031D592AFF304C02031C5C2A5D2A6B2A61
:1004BA00FF3083120313CC000030CD000030C1009E
:1004CA000030C0000030BF000030BE0083120313AA
:1004DA004D08803AFF0080307F02031D762A0130E2
:1004EA004C020318792A7A2A872A83120313CC0129
:1004FA00CD010030C1000030C0000030BF00003024
:10050A00BE00CB01831203134C08C2004208D2007A
:10051A00521C902A912A932AC017972A7F30C20028
:10052A004208C0055208C2000310420CC300430827
:10053A00C1004B08C2004208C1043B2908000A1244
:10054A008A1512240A128A11831203130711C7305B
:10055A0083120313E600B12AE60BB02AB42A0A3042
:10056A000A128A15FD220A128A110A128A151B23F7
:10057A000A128A1183120313E6006608EF00C730D5
:10058A0083120313E600C92AE60BC82ACC2A0A30CA
:10059A000A128A15FD220A128A110A128A151B23C7
:1005AA000A128A1183120313E6006608EE00C730A6
:1005BA0083120313E600E12AE60BE02AE42A8312F7
:1005CA00031307156F080A128A1525260A128A11BB
:1005DA00831203130C1EF22AF32A6E2B4130831264
:1005EA000313E700ED30E600E60BF92AE70BF92AD8
:1005FA00FE2A0B300A128A1561230A128A11413027
:10060A0083120313E700ED30E600E60B0A2BE70B33
:10061A000A2B0F2B831203130C1E142B152B172BCB
:10062A006D089900413083120313E700ED30E600AC
:10063A00E60B1D2BE70B1D2B222B831203130C1E1B
:10064A00272B282B2A2B2E30990041308312031393
:10065A00E700ED30E600E60B302BE70B302B352BAD
:10066A00831203130C1E3A2B3B2B3D2B6C0899006B
:10067A00413083120313E700ED30E600E60B432B0B
:10068A00E70B432B482B831203130C1E4D2B4E2BC7
:10069A00502B6B089900413083120313E700ED30A9
:1006AA00E600E60B562BE70B562B5B2B8312031344
:1006BA000C1E602B612B632B0D3099004130831285
:1006CA000313E700ED30E600E60B692BE70B692B15
:1006DA006E2B831203136E080A128A1525260A1234
:1006EA008A11831203130C1E7B2B7C2BF72B4130B0
:1006FA0083120313E700ED30E600E60B822BE70BCB
:10070A00822B872B1C300A128A1561230A128A113E
:10071A00413083120313E700ED30E600E60B932B1A
:10072A00E70B932B982B831203130C1E9D2B9E2BE6
:10073A00A02B6D089900413083120313E700ED30B6
:10074A00E600E60BA62BE70BA62BAB2B83120313B3
:10075A000C1EB02BB12BB32B2E30990041308312D3
:10076A000313E700ED30E600E60BB92BE70BB92BD4
:10077A00BE2B831203130C1EC32BC42BC62B6C086F
:10078A009900413083120313E700ED30E600E60BCF
:10079A00CC2BE70BCC2BD12B831203130C1ED62B9D
:1007AA00D72BD92B6B089900413083120313E7002A
:1007BA00ED30E600E60BDF2BE70BDF2BE42B831291
:1007CA0003130C1EE92BEA2BEC2B0D309900413058
:1007DA0083120313E700ED30E600E60BF22BE70B7A
:1007EA00F22BF72B831203138C1EFC2BFD2BF72BFA
:1007FA001A08D03EE600660883160313A200831285
:10080A008C1E082C092C042C1A08D03EE600660817
:10081A0083160313A10083128C1E142C152C102C82
:10082A001A08D03EE600660883160313A0002D308E
:10083A0083120313E6006608AB008316031322082B
:10084A0083120313E700E8016708AC006808AD00EB
:10085A00CB300A128A157C230A128A112D30831290
:10086A000313E6006608AB008316031321088312FC
:10087A000313E700E8016708AC006808AD00B73069
:10088A000A128A157C230A128A112D308312031345
:10089A00E6006608AB0083160313200883120313CD
:1008AA00E700E8016708AC006808AD00A3300A1247
:1008BA008A157C230A128A11B73083120313E600C1
:1008CA006608F000CB300A128A15E9230A128A1147
:1008DA00A33083120313E6006608F000CB300A1235
:1008EA008A15E9230A128A11CB300A128A152E2593
:1008FA000A128A11770883120313EA007608E900BC
:10090A0069088600A92A0A128A1100288312031389
:10091A0023088039A8002808AD002308A800280762
:10092A00A9002908B300A21F9B2C9C2C9D2C3314D0
:10093A0033080319A12CA22CB12C330A031DA62CAF
:10094A00A72CAF2C0030A3000030A2000030A10079
:10095A000030A000A217B92C0030A3000030A2007A
:10096A000030A1000030A00027088039A80028081C
:10097A00AD062708A8002807A9002908B200A61F63
:10098A00C72CC82CC92C321432080319CD2CCE2CF2
:10099A00DD2C320A031DD22CD32CDB2C0030A7000D
:1009AA000030A6000030A5000030A400A617E52CF0
:1009BA000030A7000030A6000030A5000030A400D7
:1009CA0032080319E92CEA2CEF2C3308031DEE2C0C
:1009DA00EF2CF82C0030A3000030A2000030A10058
:1009EA000030A000EB2F2008A8002808F0002608F5
:1009FA000A128A15C2230A128A1171088312031372
:100A0A00B9007008B8003808A800A901AA01AB010A
:100A1A002B08B1002A08B0002908AF002808AE0048
:100A2A003908A800A901AA01AB012B08B7002A08B6
:100A3A00B6002908B5002808B4002108A80028082B
:100A4A00F00025080A128A15C2230A128A117108AF
:100A5A0083120313B9007008B8003808A800A90166
:100A6A00AA01AB012808AE07290803110318013EA1
:100A7A000319402DAF072A0803110318013E031971
:100A8A00472DB0072B0803110318013E03194E2DF9
:100A9A00B1073908A800A901AA01AB012808B407BF
:100AAA00290803110318013E03195C2DB5072A080A
:100ABA0003110318013E0319632DB6072B0803110E
:100ACA000318013E03196A2DB7072208A80028084F
:100ADA00F00024080A128A15C2230A128A11710820
:100AEA0083120313B9007008B8003808A800A901D6
:100AFA00AA01AB012808AE07290803110318013E11
:100B0A000319882DAF072A0803110318013E031998
:100B1A008F2DB0072B0803110318013E0319962DD8
:100B2A00B1073908A800A901AA01AB012808B4072E
:100B3A00290803110318013E0319A42DB5072A0831
:100B4A0003110318013E0319AB2DB6072B08031135
:100B5A000318013E0319B22DB7070830A800031085
:100B6A00AE0DAF0DB00DB10DA80BB42D2108A80024
:100B7A002808F00024080A128A15C2230A128A11C8
:100B8A00710883120313B9007008B8003808A80066
:100B9A003908A900AA01AB012808AE0729080311E0
:100BAA000318013E0319DA2DAF072A0803110318A7
:100BBA00013E0319E12DB0072B0803110318013E6A
:100BCA000319E82DB1072008A8002808F000250815
:100BDA000A128A15C2230A128A1171088312031390
:100BEA00B9007008B8003808A8003908A900AA0195
:100BFA00AB012808AE07290803110318013E03199F
:100C0A00072EAF072A0803110318013E03190E2EF7
:100C1A00B0072B0803110318013E0319152EB1075B
:100C2A000830A8000310AE0DAF0DB00DB10DA80B22
:100C3A00172E2008A8002808F00024080A128A158E
:100C4A00C2230A128A11710883120313B9007008A9
:100C5A00B8003808A8003908A900AA01AB01280879
:100C6A00AE07290803110318013E03193D2EAF07E9
:100C7A002A0803110318013E0319442EB0072B0852
:100C8A0003110318013E03194B2EB1072108A800CE
:100C9A002808F00026080A128A15C2230A128A11A5
:100CAA00710883120313B9007008B8003808A80045
:100CBA003908A900AA01AB012808B40729080311B9
:100CCA000318013E03196A2EB5072A0803110318EF
:100CDA00013E0319712EB6072B0803110318013EB2
:100CEA000319782EB7072208A8002808F00025085B
:100CFA000A128A15C2230A128A117108831203136F
:100D0A00B9007008B8003808A8003908A900AA0173
:100D1A00AB012808B407290803110318013E031977
:100D2A00972EB5072A0803110318013E03199E2EB0
:100D3A00B6072B0803110318013E0319A52EB7079E
:100D4A002208A8002808F00026080A128A15C223D9
:100D5A000A128A11710883120313B9007008B800C5
:100D6A003808A8003908A900AA01AB010830031005
:100D7A00A80DA90DAA0DAB0DFF3E031DBC2E280818
:100D8A00B407290803110318013E0319CD2EB5072C
:100D9A002A0803110318013E0319D42EB6072B089B
:100DAA0003110318013E0319DB2EB7072E08A8000A
:100DBA002F08A9003008AA003108AB001830031028
:100DCA00AB0CAA0CA90CA80CFF3E031DE42E2808A4
:100DDA00B407290803110318013E0319F52EB507B4
:100DEA002A0803110318013E0319FC2EB6072B0823
:100DFA0003110318013E0319032FB7070830A8008F
:100E0A000310AE0DAF0DB00DB10DA80B052F3308B1
:100E1A003207A800A901A90D2808823EB8002908AE
:100E2A000318013EFF3EB900372F0130A800031016
:100E3A00B40DB50DB60DB70DA80B1C2FB11F262F7B
:100E4A00272F282F34140130A8000310AE0DAF0D40
:100E5A00B00DB10DA80B2A2FFF30B8070318B90A35
:100E6A00FF30B907B61F3A2F3B2F1A2FB201B11F15
:100E7A003F2F402F5C2FFF302E05A800FF302F0593
:100E8A00A900FF303005AA007F303105AB002B08DE
:100E9A002A04290428040319532F542F572FB20167
:100EAA00B20A5C2F341C5A2F5B2F5C2F542F320846
:100EBA000319602F612F922F0130B40700300318F5
:100ECA000130B507003003180130B60700300318A7
:100EDA000130B707371C722F732F922F3408A800DE
:100EEA003508A9003608AA003708AB000130AC0063
:100EFA002B0DAB0CAA0CA90CA80CAC0B7D2F2B0844
:100F0A00B7002A08B6002908B5002808B40001303D
:100F1A00B8070318B90A0030B9073908803AFF0040
:100F2A0080307F02031D9B2FFF303802031C9E2F47
:100F3A009F2FAA2F7F3083120313B7008030B60089
:100F4A000030B5000030B400DF2F831203133908D4
:100F5A00803AFF0080307F02031DB52F013038022E
:100F6A000318B82FB92FC52F003083120313B70007
:100F7A000030B6000030B5000030B400AD01DF2FFC
:100F8A00831203133808A8002808B300FF30B405F9
:100F9A00FF30B5057F30B6050030B705331CD62FB4
:100FAA00D72FD82FB6173308A8000310280CA9008A
:100FBA002908B7002D08A8002808B7043708A30095
:100FCA003608A2003508A1003408A00008008312E0
:100FDA000313EB01EC01ED01EE01EF018313A030E5
:100FEA008400DF300A128A150A230A128A11830141
:100FFA000A128A11A42A08308A000408840A82077D
:10100A000034013400340A34003464340034E834DF
:10101A00033410342734563441344C344F34523468
:10102A00203444344534203450344F345434313429
:10103A003A3420340D340034563441344C344F346D
:10104A005234203444344534203450344F345434E8
:10105A0032343A3420340D340034253464340034C4
:1015FA00F000700883120313930008008316031384
:10160A00141C082B092B032B080064008001840A90
:10161A0004060319003404060B2B831203130C1E51
:10162A00172B182B122B7008990008000A128A151A
:10163A0003230A128A158312031313080800F10000
:10164A00F0013A30710203182B2B2C2B342B30303B
:10165A007102031C312B322B342BF001F00A700C6F
:10166A000800F300F201731C3B2B3C2B402B700843
:10167A00F1007108F2070310F00D0310F30C730860
:10168A00031D482B492B382B72080800F3008316D8
:10169A0003138712731D522B532B572B7208940076
:1016AA0087155B2B70087204940087117308710404
:1016BA00831203139400080083120313AD00AF01D1
:1016CA000130AB002B08B0007030AB002B08AE0025
:1016DA002D08AB002B08A0002E30AC002C08A1006E
:1016EA002F300A128A15CC260A128A15080083128C
:1016FA000313B1003108AE002E08B200B3012C303A
:10170A00AE002E08B0002B08AE002E08A000303024
:10171A00AF002F08A10032300A128A15CC260A120D
:10172A008A15831203133208840083138001080088
:10173A00F401F501701CA22BA32BA92B7208F40744
:10174A000318F50A7308F50701300310F20DF30DBB
:10175A00FF3E031DAA2B01300310F10CF00CFF3ED3
:10176A00031DB12B70087104031DBC2BBD2B9F2BCD
:10177A007508F1007408F0000800F800F401F5019A
:10178A007008F200F3017208F6007308F700781C7B
:10179A00CF2BD02BD62B7608F4070318F50A770837
:1017AA00F50701300310F60DF70DFF3E031DD72B89
:1017BA000310F80C7808031DE32BE42BCC2B7508D7
:1017CA00F1007408F0000800F2007208F1007108D4
:1017DA00F300F32B0130F1007108F307730884005A
:1017EA0083130008031DFA2BFB2BEF2B042C01306B
:1017FA00F1007108F3070130F1007108F007700871
:10180A0084000008F1007308840071088000000851
:10181A00031D102C112CFC2B0800831603178801BA
:10182A0089018316031307118601880183120313A2
:10183A0086018801831603130F178F160F120F14D0
:10184A0018158316031787118316031318128312A8
:10185A000313981718168316031398168312031383
:10186A001813193083160313990001309A00831252
:10187A0003130715F001F101F20120300A128A154B
:10188A004B230A128A1508007808790403194E2C8A
:10189A004F2C7E2CFD01FD0A5D2C01300310F80D42
:1018AA00F90DFF3E031D532C0130FC007C08FD0797
:1018BA00F91F602C612C522C79087B02031D672CBE
:1018CA0078087A02031C6A2C6B2C712C7808FA02AD
:1018DA007908031CFB03FB0201300310F90CF80C16
:1018EA00FF3E031D722C0130FD02031D7D2C7E2C50
:1018FA00612C7B08F9007A08F8000800F501F60166
:10190A007008710403198A2C8B2CC22CF701F70A70
:10191A00992C01300310F00DF10DFF3E031D8F2CA1
:10192A000130F4007408F707F11F9C2C9D2C8E2CB3
:10193A0001300310F50DF60DFF3E031D9E2C7108B4
:10194A007302031DAA2C70087202031CAD2CAE2C64
:10195A00B52C7008F2027108031CF303F302751424
:10196A0001300310F10CF00CFF3E031DB62C0130C0
:10197A00F702031DC12CC22C9D2C7608F1007508B4
:10198A00F0000800F601F11FCB2CCC2CD32CF00967
:10199A00F109F00A0319F10AF601F60AF31FD62C27
:1019AA00D72CE02CF209F309F20A0319F30A0130E1
:1019BA00F4007408F606F701F801700871040319B7
:1019CA00E72CE82C1F2DF501F50AF62C013003103F
:1019DA00F00DF10DFF3E031DEC2C0130F4007408EC
:1019EA00F507F11FF92CFA2CEB2C01300310F70D37
:1019FA00F80DFF3E031DFB2C71087302031D072D12
:101A0A0070087202031C0A2D0B2D122D7008F202A7
:101A1A007108031CF303F302771401300310F10C6D
:101A2A00F00CFF3E031D132D0130F502031D1E2D80
:101A3A001F2DFA2C76080319232D242D292DF70999
:101A4A00F809F70A0319F80A7808F1007708F0008C
:101A5A000800FD00342D0130F8007808FD077D08E4
:101A6A00840020308313000603193C2D3D2D302DB0
:101A7A007D088400093000060319442D452D302DB8
:101A8A00FB01FC01FA017D0884002D300006031DCC
:101A9A004F2D502D592D0130F8007808FA070130E2
:101AAA00F8007808FD07872D7D0884002B30000692
:101ABA00031D602D612D872D0130F8007808FD0780
:101ACA00872D7D0884007C08F1007B08F0000A302D
:101ADA00F2000030F3000A128A159D230A128A15B1
:101AEA00831300087007F8000030031801307107EB
:101AFA00F9007808D03EFB0079080318013EFF3E42
:101B0A00FC00612D7D08840000080A128A1524232E
:101B1A000A128A150318922D932D662D7A08031935
:101B2A00972D982DA42D7B09F8007C09F900F80A55
:101B3A000319F90A7808F6007908F700A82D7C0835
:101B4A00F7007B08F6000800031083120313560DF2
:101B5A00570DD8005808DE005E08031DB52DB62DB6
:101B6A00BF2D0030D7000030D6000030D50000303D
:101B7A00D400242E5408D8005508D9005608DA0093
:101B8A005708DB001F300310DB0CDA0CD90CD80C19
:101B9A00FF3E031DC82D5808DC005C08DD00D6177F
:101BAA00FF30D405FF30D505FF30D6050030D70504
:101BBA009630DE02DE1FE22DE32DFD2D5E08803A0F
:101BCA00973E0318E92DEA2DEB2DB62D01300310AF
:101BDA00D70CD60CD50CD40CFF3E031DEC2D0130CE
:101BEA00D8005808DE07031DFB2DFC2DEB2D142E03
:101BFA0020305E02031C022E032E0F2EB62D01305A
:101C0A00D8000310D40DD50DD60DD70DD80B062E3E
:101C1A000130DE025E08031D132E142E042E5D0809
:101C2A000319182E192E242ED409D509D609D70935
:101C3A00D40A0319D50A0319D60A0319D70A0800C0
:101C4A0083120313E4006408DF005F08E5006508F7
:101C5A00DF00E001E101E2016208F3006108F2003D
:101C6A006008F1005F08F00001300A128A110D20A5
:101C7A000A128A15730883120313A7007208A600B2
:101C8A007108A5007008A4003F30A300FB30A20031
:101C9A004330A1009630A0000A128A118B240A123E
:101CAA008A15831203132308C1002208C0002108E1
:101CBA00BF002008BE004230BD00C830BC00003062
:101CCA00BB000030BA000A128A11C7200A128A150C
:101CDA00831203133D08D7003C08D6003B08D50001
:101CEA003A08D4000A128A15A9250A128A158312FB
:101CFA0003135408E3006308ED009C30DF005F081B
:101D0A00F0006D080A128A1536230A128A15831200
:101D1A0003136507E0006008E5000A30F0000030B0
:101D2A00F1006508DF00E0015F08F2006008F300D7
:101D3A000A128A15C7240A128A1570088312031315
:101D4A00E1006108EC00F630DF005F08F0006C0883
:101D5A000A128A1536230A128A1583120313650793
:101D6A00E0006008E5006508DF005F08EB006D0829
:101D7A00303EDF005F08ED006C08303EDF005F0890
:101D8A00EC006B08303EDF005F08EB0008008312AE
:101D9A000313AA00E92F253029060319D52ED62EBA
:101DAA00FC2E2A0A8400831300080319DD2EDE2E76
:101DBA00ED2E2908A2002208F0002A0A8400000851
:101DCA000A128A1103200A128A1583120313CF2ECC
:101DDA002908A2002A08840000088400220880003A
:101DEA000130A2002A08840022088007CF2EA5010C
:101DFA000130A007FF30200784000A128A1500204C
:101E0A000A128A15A900A200A3012308003A03199D
:101E1A000F2FE92F2208003A0319FD2F643A0319FC
:101E2A001A2F0D3A03191A2FE92F21088400831358
:101E3A000008A20002308007220884000008A700D8
:101E4A00840A0008A800A81F2B2F2C2F352F033037
:101E5A00A2002208A504A709A809A70A0319A80A23
:101E6A00A901A90A2908A2002207013E84000A1230
:101E7A008A1500200A128A15A3000A128A15002060
:101E8A000A128A15A40024082802031D4E2F2308CB
:101E9A0027020318512F522F532F5D2F0130A20012
:101EAA002208A90705302906031D5C2F5D2F372F4D
:101EBA00250803390319622F632F862F2A0A840003
:101ECA008313000803196A2F6B2F782F2D30A20075
:101EDA002208F0002A0A840000080A128A11032044
:101EEA000A128A15862F2D30A2002A0884000008BB
:101EFA008400220880000130A2002A0884002208F7
:101F0A008007831203132908A2002208A600DE2FE5
:101F1A000A30F8000030F9002608A2002207013E24
:101F2A0084000A128A1500200A128A15F0000A1281
:101F3A008A1500200A128A15F1002808F3002708DA
:101F4A00F2000A128A1583240A128A157108FB0004
:101F5A007008FA000A128A1549240A128A157808A2
:101F6A00303E83120313A3002308A9002A0A84001F
:101F7A00831300080319C22FC32FD02F2908A200E8
:101F8A002208F0002A0A840000080A128A11032093
:101F9A000A128A15DE2F2908A2002A0884000008DE
:101FAA008400220880000130A2002A088400220846
:101FBA008007FF3083120313A2002208A607260A0D
:101FCA00031DE82FE92F8D2F013083120313A00779
:101FDA00FF30200784000A128A1500200A128A1587
:101FEA00A2002208A9002908031DFC2FFD2FD02ECC
:061FFA00A001A101080096
:04400E00D420FF3F7C
:00000001FF
