:020000040000FA
:060000000A128A110C280F
:10000800FE00030EF2000A08F3000A128A118E2875
:100018000A128A110F280A128A1179210A128A11E2
:10002800AB000A128A117A210A128A11AC000A124C
:100038008A117B210A128A11AD000A128A117C21C9
:100048000A128A11AE000A128A117D210A128A1137
:10005800F900F701F80183010A128A11E6288312D0
:100068000313A501A31F39283A284128A209A30987
:10007800A20A0319A30AA501A50AA11F4428452815
:100088004A28A009A109A00A0319A10A20082104E5
:1000980003194F2850287F28A401A40A5E2801309C
:1000A8000310A00DA10DFF3E031D54280130F400DC
:1000B8007408A407A11F6128622853282108230275
:1000C800031D682820082202031C6B286C2872284C
:1000D8002008A2022108031CA303A3020130031075
:1000E800A10CA00CFF3E031D73280130A402031DC0
:1000F8007E287F28622825080319832884288928D0
:10010800A209A309A20A0319A30A2308A100220825
:10011800A00008000B1C91289228DF2883120313E3
:10012800061897289828C6288230F100DD30F0009C
:10013800F00B9C28F10B9C28A1287908FF3EF000C1
:100148007008F9008230F100DD30F000F00BAA28C9
:10015800F10BAA28AF287908FF3EF0007008F900D3
:100168008230F100DD30F000F00BB828F10BB82830
:10017800BD287908FF3EF0007008F9000130F7004B
:100188000030F80077037804031DCB28CC28DE283C
:10019800831203138618D128D228D6287608870018
:1001A8000310F60D0619D928DA28DE287508880004
:1001B8000310F50D0B1073088A00720E8300FE0EF3
:1001C8007E0E09000A128A1136210A128A110A12B1
:1001D8008A1160210A128A11831203132F082B3EF9
:1001E800840083130008850009290914891009115E
:1001F8001F290914891009111F29091089140911C7
:100208001F290910891009151F297908A900AA01B1
:100218002A08003A031911291F292908003A031945
:100228000529013A03190129033A0319FD28013A5E
:100238000319F9281F29871F222923292E290D3060
:1002480083120313AA00FB30A900A90B2929AA0BC2
:1002580029293329881F31293229EB2823290A1211
:100268008A110C2883160317880189018316031342
:1002780085018601870188018901061486140615FF
:10028800831203138501860187018801890183167A
:1002980003130F138F160F120F14811281130730D7
:1002A80095001614961416158B170B148B15F6015A
:1002B800F60AF501F50A08000A3083120313A000B4
:1002C8000030A1007908A600A7012608A200270887
:1002D800A3000A128A1133200A128A118312031307
:1002E8002008A8002808AF0008003F3406345B3413
:0402F8004F34033448
:04400E00D420FF3F7C
:00000001FF
