:020000040000FA
:060000000A128A110C280F
:10000800FE00030EF1000A08F2000A128A111428F1
:100018000A128A110F28F60183010A128A11D228BE
:10002800831203138C1D19281A287B281412141BF9
:100038001E281F282328941F222823282A2813082B
:10004800F0007008F60014139413141683160313A3
:10005800941A2F2830285728141933283428572859
:100068000430F000F00B3628000083120313130845
:10007800F0007008F60040284128831203138C1101
:10008800141683160313141C4A284B284528831278
:1000980003131308F0007008F500A630F000F00B09
:1000A800532800007828941A5A285B287828141DA9
:1000B8005E285F287828831203131308F00070085D
:1000C800F6008316031314107508831203139300A4
:1000D8001416A630F000F00B6F28000083160313E7
:1000E8001418772878287228831203138C110B1C94
:1000F8007E287F288E2806188228832886280808C4
:10010800013E8800861889288A288D280808FF3E1D
:1001180088000B1072088A00710E8300FE0E7E0E96
:10012800090083160317880189018316031306142F
:10013800861408108810081188118113033095005F
:10014800161496140F178F160F160F1460300A1214
:100158008A11B8200A128A118B170B148B1183127B
:100168000313860188010800F3007308831603133C
:1001780093003630831203139400803083160313E0
:10018800940001309100871507168B170B178312FF
:1001980003138C11831603138C1508000A128A1195
:1001A80095200A128A11831203130808F4007408B0
:0A01B800F500D7280A128A110C285E
:04400E00D420FF3F7C
:00000001FF
