:020000040000FA
:060000000A128A110C280F
:10000800FE00030EF1000A08F2000A128A11632E9C
:100018000A128A110F288313203084004C300A12E8
:100028008A111C270A128A11A0308400B4300A12DF
:100038008A111C270A128A1183010A128A112D2893
:10004800FF0000308A007F08820729280A128A11D7
:10005800132F0A128A11C1250A128A118312031357
:1000680023080A128A11DA240A128A118312031346
:100078000C1E3F284028A228823083120313E70071
:10008800DD30E600E60B4628E70B46288B300A12DF
:100098008A1183260A128A11823083120313E70019
:1000A800DD30E600E60B5628E70B562883120313CB
:1000B8000C1E5F28602862286D0899008230831220
:1000C8000313E700DD30E600E60B6828E70B682835
:1000D800831203130C1E7128722874286C08990067
:1000E800823083120313E700DD30E600E60B7A283E
:1000F800E70B7A28831203130C1E8328842886288A
:100108006B089900823083120313E700DD30E600A4
:10011800E60B8C28E70B8C28831203130C1E9528FA
:10012800962898280D309900823083120313E7002F
:10013800DD30E600E60B9E28E70B9E280B300A12FE
:100148008A1183260A128A11831203138C1EAD2882
:10015800AE28A8281A08D03EE6006608A200B928EA
:100168000A128A11D2260A128A1133308312031313
:100178001A020318C028C128B428AC300A128A1100
:1001880083260A128A11831203138C1ECC28CD28C9
:10019800C7281A08D03EE6006608A10002302206E9
:1001A800031DD728D828E628DE280A128A11B8267F
:1001B8000A128A113630831203131A020318E5282B
:1001C800E628D928C9300A128A1183260A128A1108
:1001D800831203138C1EF128F228EC281A08D03E4B
:1001E800E6006608A00002302206031DFC28FD2850
:1001F800112905302106031D02290329112909297E
:100208000A128A119E260A128A11363083120313A3
:100218001A020318102911290429E630E600660895
:10022800DD002208E700E8016708DE006808DF0053
:1002380038300A128A1142260A128A11E6308312CD
:100248000313E6006608DD002108E700E8016708F7
:10025800DE006808DF0024300A128A1142260A12DA
:100268008A11E63083120313E6006608DD002008D1
:10027800E700E8016708DE006808DF00A0300A121E
:100288008A1142260A128A11243083120313E600C7
:100298006608F30038300A128A11F4250A128A1106
:1002A800A03083120313E6006608F30038300A1200
:1002B8008A11F4250A128A1138300A128A11EE239B
:1002C8000A128A117A0883120313EA007908E900EE
:1002D8006908880032280A128A110C28831203132D
:1002E800DC00912A25305B0603197B297C29A22989
:1002F8005C0A84008313000803198329842993293D
:100308005B08D4005408F3005C0A840000080A1251
:100318008A1124200A128A118312031375295B0893
:10032800D4005C0884000008840054088000013070
:10033800D4005C088400540880077529D70101306F
:10034800D207FF30520784000A128A1100230A12CA
:100358008A11DB00D400D5015508003A0319B529E4
:10036800912A5408003A0319A52A643A0319C029A6
:100378000D3A0319C029912A5308840083130008F1
:10038800D40002308007540884000008D900840A89
:100398000008DA00DA1FD129D229DB290330D4007A
:1003A8005408D704D909DA09D90A0319DA0ADB018A
:1003B800DB0A5B08D4005407013E84000A128A1144
:1003C80000230A128A11D5000A128A1100230A1280
:1003D8008A11D60056085A02031DF42955085902F5
:1003E8000318F729F829F929032A0130D4005408F9
:1003F800DB0705305B06031D022A032ADD2957089F
:1004080003390319082A092A2C2A5C0A8400831351
:1004180000080319102A112A1E2A2D30D400540866
:10042800F3005C0A840000080A128A1124200A12C8
:100438008A112C2A2D30D4005C088400000884001E
:10044800540880000130D4005C08840054088007F8
:10045800831203135B08D4005408D800862A0A3094
:10046800CC000030CD005808D4005407013E840069
:100478000A128A1100230A128A11F3000A128A1139
:1004880000230A128A11F4005A08F6005908F500E8
:100498000A128A1141250A128A1174088312031359
:1004A800CF007308CE000A128A1185250A128A1114
:1004B800831203134C08303ED5005508DB005C0A54
:1004C80084008313000803196A2A6B2A782A5B08B8
:1004D800D4005408F3005C0A840000080A128A1148
:1004E80024200A128A11862A5B08D4005C0884003A
:1004F80000088400540880000130D4005C0884009F
:1005080054088007FF3083120313D4005408D80717
:10051800580A031D902A912A332A013083120313A3
:10052800D207FF30520784000A128A1100230A12E8
:100538008A11D4005408DB005B08031DA42AA52AED
:080548007629D201D30108005D
:1006000003308A000408840A82070034013400346D
:100610000A34003464340034E834033410342734AA
:1006200050346F34723420346634613476346F342D
:100630007234203469346E34673472346534733400
:10064000653420346C3461342034633465346E3462
:10065000743465346E3461342C342034733469342A
:1006600020346534733420343C3431343034303405
:10067000203463346F346C346F34633461347234D7
:10068000203430340D34003449346E3474347234D0
:100690006F34643475347A3463346134203475349F
:1006A0006E342034763461346C346F3472342034D8
:1006B0006D3465346E346F34723420346F342034CA
:1006C00069346734753461346C34203461342034D7
:1006D00035340D34003449346E34743472346F342C
:1006E000643475347A3463346134203475346E3450
:1006F0002034763461346C346F3472342034763480
:1007000061346C34693464346F3420346434653457
:100710002034303420346134203432340D34003409
:100720000D34563441344C344F3452342034443434
:100730004534203443344F344E34543441344434FB
:100740004F345234203444344534203442344F340E
:1007500054344F344E34453453343A3420340D3409
:10076000003450346F34723420346634613476345B
:100770006F347234203469346E34673472346534C3
:100780007334653420346C3461342034643465341B
:10079000633465346E3461340D34003450346F3456
:1007A000723420346634613476346F3472342034D9
:1007B00069346E346734723465347334653420348C
:1007C0006C346134203475346E346934643461348B
:1007D00064340D340034253464340034831203133C
:1007E000D100F62B0130CC004C08D1075108840011
:1007F0002030831300060319FE2BFF2BF22B510828
:100800008400093000060319062C072CF22BCF01B7
:10081000D001CE01510884002D300006031D112C9B
:10082000122C1B2C0130CC004C08CE070130CC0020
:100830004C08D1074D2C510884002B300006031DB5
:10084000222C232C4D2C0130CC004C08D1074D2CF0
:1008500083120313510884005008F4004F08F3007A
:100860000A30F5000030F6000A128A111D260A121D
:100870008A1183130008730783120313CC0000301E
:10088000031801307407CD004C08D03ECF004D084E
:100890000318013EFF3ED000232C510884000008BD
:1008A0000A128A1101270A128A110318582C592C8E
:1008B000282C831203134E0803195F2C602C6C2C18
:1008C0004F09CC005009CD00CC0A0319CD0A4C08C1
:1008D000F9004D08FA00702C5008FA004F08F90092
:1008E000080083120313CD01F41F772C782C7F2C82
:1008F000F309F409F30A0319F40ACD01CD0AF61F2E
:10090000822C832C8C2CF509F609F50A0319F60ABA
:100910000130F7007708CD06CE01CF0173087404CB
:100920000319932C942CCB2CCC01CC0AA22C013093
:100930000310F30DF40DFF3E031D982C0130F7005A
:100940007708CC07F41FA52CA62C972C0130031098
:10095000CE0DCF0DFF3E031DA72C74087602031D9C
:10096000B32C73087502031CB62CB72CBE2C73086D
:10097000F5027408031CF603F6024E14013003104E
:10098000F40CF30CFF3E031DBF2C0130CC02031D01
:10099000CA2CCB2CA62C4D080319CF2CD02CD52C2F
:1009A000CE09CF09CE0A0319CF0A4F08F4004E082A
:1009B000F300080083120313D0005008F8007808F1
:1009C000D1006430F3000030F4005108F800F90160
:1009D0007808F5007908F6000A128A1171240A12C3
:1009E0008A117308FA007A0883120313ED009C3011
:1009F000F8007808F3006D080A128A11EC260A1232
:100A00008A11831203135107F9007908D1000A30C3
:100A1000F3000030F4005108F800F9017808F500FF
:100A20007908F6000A128A1171240A128A117308D1
:100A3000FA007A0883120313EC00F630F800780805
:100A4000F3006C080A128A11EC260A128A1183122A
:100A500003135107F9007908D1005108F80078080C
:100A6000EB006D08303EF8007808ED006C08303E71
:100A7000F8007808EC006B08303EF8007808EB00CE
:100A80000800F801F901730874040319482D492D71
:100A9000802DFA01FA0A572D01300310F30DF40DE1
:100AA000FF3E031D4D2D0130F7007708FA07F41FB4
:100AB0005A2D5B2D4C2D01300310F80DF90DFF3E22
:100AC000031D5C2D74087602031D682D73087502E2
:100AD000031C6B2D6C2D732D7308F5027408031C19
:100AE000F603F602781401300310F40CF30CFF3E09
:100AF000031D742D0130FA02031D7F2D802D5B2D07
:100B00007908F4007808F3000800831203134C08F6
:100B10004D0403198C2D8D2DBC2DD101D10A9B2D97
:100B200001300310CC0DCD0DFF3E031D912D013082
:100B3000D0005008D107CD1F9E2D9F2D902D4D0820
:100B40004F02031DA52D4C084E02031CA82DA92DF4
:100B5000AF2D4C08CE024D08031CCF03CF0201304D
:100B60000310CD0CCC0CFF3E031DB02D0130D10283
:100B7000031DBB2DBC2D9F2D4F08CD004E08CC0072
:100B800008008316031788018901831603130614CE
:100B900086148801831203138501880183160313C9
:100BA0000F178F160F160F148113033095001614AC
:100BB0009614181583160317871583160313181236
:100BC00083120313981718168316031398168312AB
:100BD00003131813CF308316031399009A018B1750
:100BE0000B170B148B150800F5007508F40074083A
:100BF000F600FE2D0130F4007408F6077608840034
:100C000083130008031D052E062EFA2D0F2E01302A
:100C1000F4007408F6070130F4007408F307730851
:100C200084000008F400760884007408800000083E
:100C3000031D1B2E1C2E072E0800F701F801731C44
:100C4000222E232E292E7508F7070318F80A760896
:100C5000F80701300310F50DF60DFF3E031D2A2E97
:100C600001300310F40CF30CFF3E031D312E73080A
:100C70007404031D3C2E3D2E1F2E7808F4007708C7
:100C8000F300080083120313E3006308E000600828
:100C9000E400E5015E30E0006008E2005D08E0008D
:100CA0006008D2006230E1006108D30064300A12AB
:100CB0008A1172210A128A118312031364088400B4
:100CC0008313800108000B1C662E672E7C2E831276
:100CD000031306186C2E6D2E722E2308013EF000B1
:100CE0007008A3008618752E762E7B2E2308FF3EF3
:100CF000F0007008A3000B1072088A00710E8300C8
:100D0000FE0E7E0E090083120313E000E1010130A4
:100D1000DD005D08E2007030DD005D08DF00600886
:100D2000DD005D08D2005F30DE005E08D300613078
:100D30000A128A1172210A128A11080006308312DF
:100D400003131A02031CA52EA62EAC2E3F300A1246
:100D50008A1183260A128A11831203138C1EB12E64
:100D6000B22EAC2E1A08D03EE3006308A0000800A3
:100D70000630831203131A02031CBF2EC02EC62E88
:100D80003F300A128A1183260A128A118312031332
:100D90008C1ECB2ECC2EC62E1A08D03EE300630844
:100DA000A10008000330831203131A02031CD92E7A
:100DB000DA2EE02E66300A128A1183260A128A1170
:100DC000831203138C1EE52EE62EE02E1A08D03E69
:100DD000E3006308A2000800F600F501761CF12E7E
:100DE000F22EF62E7308F4007408F5070310F30DC5
:100DF0000310F60C7608031DFE2EFF2EEE2E75084E
:100E00000800F400F3013A3074020318082F092F88
:100E1000112F30307402031C0E2F0F2F112FF301EE
:100E2000F30A730C0800831203130C1E182F192FDA
:100E3000132F73089900080064008001840A0406D7
:080E40000319003404061D2F04
:04400E00D420FF3F7C
:00000001FF
