:020000040000FA
:060000000A128A110C280F
:10000800FE00030EF1000A08F2000A128A11B9294B
:100018000A128A110F28FA018313203084006030F5
:100028000A128A11EE210A128A1183010A128A1110
:100038001D280A128A1186210A128A1183120313B3
:100048005F080A128A111F210A128A11613083126D
:1000580003131A06031D3128322876280C1E35286A
:1000680036287628823083120313E800DD30E70053
:10007800E70B3C28E80B3C28831203130C1E452889
:10008800462848286C089900823083120313E80038
:10009800DD30E700E70B4E28E80B4E2883120313E8
:1000A8000C1E572858285A286B089900823083124A
:1000B8000313E800DD30E700E70B6028E80B602851
:1000C800831203130C1E69286A286C286A08990091
:1000D800823083120313E800DD30E700E70B722853
:1000E800E80B7228831203138C1E7B287C28762841
:1000F8001A08D03EE7006708DE008C128C1E85289F
:10010800862882281A08D03EE7006708DD008C128E
:100118008C1E8F2890288C281A08D03EE700670884
:10012800DC008C120A30E7006708F3005D080A1249
:100138008A11D9210A128A1183120313E800643044
:10014800E9006908F3005E080A128A11D9210A1227
:100158008A118312031368075C07880022280A1291
:100168008A110C2883120313E101F41FBC28BD284F
:10017800C428F309F409F30A0319F40AE101E10AAE
:10018800F61FC728C828D128F509F609F50A031962
:10019800F60A0130F7007708E106E201E301730887
:1001A80074040319D828D9281029E001E00AE7289F
:1001B80001300310F30DF40DFF3E031DDD2801305F
:1001C800F7007708E007F41FEA28EB28DC2801305D
:1001D8000310E20DE30DFF3E031DEC2874087602C0
:1001E800031DF82873087502031CFB28FC28032943
:1001F8007308F5027408031CF603F6026214013052
:100208000310F40CF30CFF3E031D04290130E00237
:10021800031D0F291029EB28610803191429152932
:100228001A29E209E309E20A0319E30A6308F40058
:100238006208F3000800F800780883120313E4004A
:100248006408F9006430F3000030F4007908E40031
:10025800E5016408F5006508F6000A128A11B6205F
:100268000A128A11730883120313E6006608EC0069
:100278009C30E4006408F3006C080A128A11D92142
:100288000A128A11790783120313E5006508F90039
:100298000A30F3000030F4007908E400E50164084E
:1002A800F5006508F6000A128A11B6200A128A11AA
:1002B800730883120313E6006608EB00F630E400C7
:1002C8006408F3006B080A128A11D9210A128A11EC
:1002D800790783120313E5006508F9007908E4003B
:1002E8006408EA006C08303EE4006408EC006B081F
:1002F800303EE4006408EB006A08303EE40064081D
:10030800EA0008008316031788018901831603137E
:100318000614861488018312031385018801831645
:1003280003130F178F160F160F1481130330950040
:1003380016149614181583160317871583160313B6
:100348001812831203139817181683160313981696
:10035800831203131813CF308316031399009A01DD
:100368008B170B170B148B1508000B1CBC29BD2908
:10037800D229831203130618C229C329C8295F0882
:10038800013EF0007008DF008618CB29CC29D1295E
:100398005F08FF3EF0007008DF000B1072088A004B
:1003A800710E8300FE0E7E0E0900F600F501761C24
:1003B800DE29DF29E3297308F4007408F507031020
:1003C800F30D0310F60C7608031DEB29EC29DB2945
:1003D8007508080064008001840A040603190034C3
:0403E8000406EF29EF
:04400E00D420FF3F7C
:00000001FF
