:020000040000FA
:060000000A128A110E280D
:10000800FE00030EF4000408F5000A08F6000A12C0
:100018008A1126280A128A11112883133030FD000C
:100028000130FE003330FF00203084000A128A11AC
:1000380024210A128A11B701F901FA0183010A126F
:100048008A11D5280B1D29282A285E2879087A04C0
:10005800031D2F28302843288312031389100914FD
:10006800870177080A128A1150210A128A1183120D
:10007800031387000130F9000030FA00592879038A
:100088007A04031D482849285928831203130910A4
:100098008914870178080A128A1150210A128A11D4
:1000A800831203138700F901FA010B110A30831236
:1000B800031381000B1C6128622873288312031321
:1000C8000618672868286B280808013E88008618E3
:1000D8006E286F2872280808FF3E88000B108312CC
:1000E80003130C1F7828792894281F0CF300730C2D
:1000F8000F39003A031D812882288C280A128A1198
:100108005F210A128A11F300730883120313B700E0
:100118001030F300F30B8E280000831203130C1326
:1001280076088A0075088400740E8300FE0E7E0E21
:10013800090001308316031788008901FF308316F0
:100148000313850087018801890106148614861324
:1001580083120313850187018801860189018316AB
:1001680003130F138F160F160F148112811101112B
:1001780081100110811303309500161496140A1289
:100188008A1143210A128A118B170B148B158B16AF
:100198000B11831203130C13831603130C170B177D
:1001A80008000A128A119D200A128A118312031369
:1001B8009F1437080F39B6003608F80037080A12B6
:1001C8008A1101210A128A110F3983120313B6000A
:1001D8003608F7000A128A115B210A128A11831263
:1001E800031308020318F928FA28FC288617DA28C6
:1001F8008613DA280A128A110E2883120313B5000F
:100208003508B00004300310B00CFF3E031D072969
:100218000F303005B10035080F39B2000330031034
:10022800B20DFF3E031D13290310320D3104B30034
:100238003308B400340808007E088A007F0882006A
:100248000A128A1120210A128A118000840A0408DD
:100258007D0603190034FF0A0319FE0A24293F34D6
:1002680006345B344F3466346D347D3407347F3460
:100278006F3477347C3439345E3479347134C33034
:10028800831203139F059F171F171F148316031349
:100298009F131F129F120800F1007108203E84006E
:1002A80083130008F0007008F20072080800831237
:0E02B80003131E080800831203131E0808001B
:04400E00D420FF3F7C
:00000001FF
