:020000040000FA
:060000000A128A110C280F
:10000800FE00030EF1000A08F2000A128A111628EF
:100018000A128A110F28F701F801F90183010A125F
:100028008A11C728831203138C1D1B281C287D28BE
:100038001412141B202821282528941F2428252839
:100048002C281308F0007008F900141394131416E0
:1000580083160313941A312832285928141935287D
:10006800362859280430F000F00B38280000831295
:1000780003131308F0007008F9004228432883127C
:1000880003138C11141683160313141C4C284D28C3
:100098004728831203131308F0007008F700A630EE
:1000A800F000F00B552800007A28941A5C285D2887
:1000B8007A28141D602861287A28831203131308EC
:1000C800F0007008F90083160313141077088312E0
:1000D800031393001416A630F000F00B71280000EB
:1000E80083160313141879287A28742883120313A3
:1000F8008C110C1F8028812895281F0CF000700C8B
:100108000F39003A031D89288A288E281E08F00016
:100118007008F7002130F000F00B902883120313C9
:100128000C1372088A00710E8300FE0E7E0E090001
:1001380001308316031788008901FF3083160313E3
:1001480085008601C330831203139F059F171F176D
:100158001F14831603139F131F129F120F178F1656
:100168000F160F1450300A128A11E2200A128A114F
:10017800831203130C13831603130C178312031330
:100188008501860108000A128A119C200A128A1128
:10019800831203139F14770886000230F600043098
:1001A800F500BA30F400F40BD728F50BD728F60B76
:1001B800D7280000CC280A128A110C28F3007308EB
:1001C8008316031393003630831203139400803090
:1001D80083160313940001309100871507168B17B7
:1001E8000B17831203138C11831603138C15080045
:04400E00D420FF3F7C
:00000001FF
