:020000040000FA
:060000000A128A110C280F
:10000800FE00030EF2000A08F3000A128A111728EC
:100018000A128A110F28F501F601F701F801830188
:100028000A128A11BE28831203138C1D1C281D284E
:100038003C280A128A11D4200A128A11F100710888
:10004800F80076080A128A11E4200A128A110A12A4
:100058008A11D4200A128A11F1007108F700750874
:100068000A128A11E4200A128A11831203138C11CE
:100078000C1F3F28402860281F0CF100710C0F3915
:10008800013A031D482849285028C3309F051E08F7
:10009800F1007108F60058281F08C33904389F007A
:1000A8001E08F1007108F5001030F100F10B5A2814
:1000B8000000831203130C1373088A00720E830066
:1000C800FE0E7E0E0900033083160317880089018F
:1000D80083160313051485148312031385018316ED
:1000E80003130F178F160F120F14C3308312031345
:1000F8009F059F171F171F14831603139F131F12A3
:100108009F128B17831203130C13831603130C17F8
:100118000B17831203138C11831603138C15851682
:1001280083120313A001A101A20124300A128A112B
:10013800A0200A128A110800F400831603138712FC
:10014800741DA728A828B028831203132208831631
:10015800031394008715B828831203132008220478
:100168008316031394008711740883120313210460
:10017800940008000A128A1167200A128A11831251
:1001880003139F14823083120313A400DD30A300ED
:10019800A30BCC28A40BCC28C3280A128A110C283C
:1001A8000A128A11DD200A128A1183120313130816
:1001B800080083160313141CE228E328DD2808002E
:0C01C800F000700883120313930008007D
:04400E00D420FF3F7C
:00000001FF
